{
  "contractName": "CropDetails",
  "abi": [
    {
      "anonymous": false,
      "inputs": [
        {
          "indexed": true,
          "internalType": "address",
          "name": "account",
          "type": "address"
        }
      ],
      "name": "CropAdded",
      "type": "event"
    },
    {
      "anonymous": false,
      "inputs": [
        {
          "indexed": true,
          "internalType": "address",
          "name": "account",
          "type": "address"
        }
      ],
      "name": "CropUpdated",
      "type": "event"
    },
    {
      "inputs": [
        {
          "internalType": "address",
          "name": "",
          "type": "address"
        },
        {
          "internalType": "uint256",
          "name": "",
          "type": "uint256"
        }
      ],
      "name": "crops",
      "outputs": [
        {
          "internalType": "uint256",
          "name": "cropID",
          "type": "uint256"
        },
        {
          "internalType": "string",
          "name": "cropType",
          "type": "string"
        },
        {
          "internalType": "string",
          "name": "cropName",
          "type": "string"
        },
        {
          "internalType": "string",
          "name": "fertiliser",
          "type": "string"
        },
        {
          "internalType": "string",
          "name": "sourceTagNo",
          "type": "string"
        },
        {
          "internalType": "uint256",
          "name": "quantity",
          "type": "uint256"
        },
        {
          "internalType": "uint256",
          "name": "DateSowed",
          "type": "uint256"
        },
        {
          "internalType": "uint256",
          "name": "DateHarvested",
          "type": "uint256"
        }
      ],
      "stateMutability": "view",
      "type": "function",
      "constant": true
    },
    {
      "inputs": [
        {
          "internalType": "string",
          "name": "cropType",
          "type": "string"
        },
        {
          "internalType": "string",
          "name": "cropName",
          "type": "string"
        },
        {
          "internalType": "string",
          "name": "sourceTagNo",
          "type": "string"
        },
        {
          "internalType": "address",
          "name": "farmerAddr",
          "type": "address"
        }
      ],
      "name": "addCrop1",
      "outputs": [
        {
          "internalType": "uint256",
          "name": "cropID",
          "type": "uint256"
        }
      ],
      "stateMutability": "nonpayable",
      "type": "function"
    },
    {
      "inputs": [
        {
          "internalType": "uint256",
          "name": "cropID",
          "type": "uint256"
        },
        {
          "internalType": "string",
          "name": "fertiliser",
          "type": "string"
        },
        {
          "internalType": "uint256",
          "name": "quantity",
          "type": "uint256"
        },
        {
          "internalType": "uint256",
          "name": "DateSowed",
          "type": "uint256"
        },
        {
          "internalType": "uint256",
          "name": "DateHarvested",
          "type": "uint256"
        },
        {
          "internalType": "address",
          "name": "farmerAddr",
          "type": "address"
        }
      ],
      "name": "addCrop2",
      "outputs": [],
      "stateMutability": "nonpayable",
      "type": "function"
    },
    {
      "inputs": [
        {
          "internalType": "uint256",
          "name": "cropID",
          "type": "uint256"
        },
        {
          "internalType": "address",
          "name": "farmerAddr",
          "type": "address"
        },
        {
          "internalType": "uint256",
          "name": "DateHarvested",
          "type": "uint256"
        },
        {
          "internalType": "uint256",
          "name": "quantity",
          "type": "uint256"
        }
      ],
      "name": "updateCrop",
      "outputs": [],
      "stateMutability": "nonpayable",
      "type": "function"
    },
    {
      "inputs": [
        {
          "internalType": "address",
          "name": "farmerAddr",
          "type": "address"
        },
        {
          "internalType": "uint256",
          "name": "cropID",
          "type": "uint256"
        }
      ],
      "name": "getCrop1",
      "outputs": [
        {
          "internalType": "string",
          "name": "cropType",
          "type": "string"
        },
        {
          "internalType": "string",
          "name": "cropName",
          "type": "string"
        },
        {
          "internalType": "string",
          "name": "sourceTagNo",
          "type": "string"
        }
      ],
      "stateMutability": "view",
      "type": "function",
      "constant": true
    },
    {
      "inputs": [
        {
          "internalType": "address",
          "name": "farmerAddr",
          "type": "address"
        },
        {
          "internalType": "uint256",
          "name": "cropID",
          "type": "uint256"
        }
      ],
      "name": "getCrop2",
      "outputs": [
        {
          "internalType": "string",
          "name": "fertiliser",
          "type": "string"
        },
        {
          "internalType": "uint256",
          "name": "quantity",
          "type": "uint256"
        },
        {
          "internalType": "uint256",
          "name": "DateSowed",
          "type": "uint256"
        },
        {
          "internalType": "uint256",
          "name": "DateHarvested",
          "type": "uint256"
        }
      ],
      "stateMutability": "view",
      "type": "function",
      "constant": true
    }
  ],
  "bytecode": "0x608060405234801561001057600080fd5b50611499806100206000396000f3fe608060405234801561001057600080fd5b50600436106100625760003560e01c80631885f4f7146100675780632adc8d771461016a578063541884a7146103095780635ca2c20514610460578063a4a123f11461053c578063bbff047f14610763575b600080fd5b610168600480360360c081101561007d57600080fd5b8101908080359060200190929190803590602001906401000000008111156100a457600080fd5b8201836020820111156100b657600080fd5b803590602001918460018302840111640100000000831117156100d857600080fd5b91908080601f016020809104026020016040519081016040528093929190818152602001838380828437600081840152601f19601f820116905080830192505050505050509192919290803590602001909291908035906020019092919080359060200190929190803573ffffffffffffffffffffffffffffffffffffffff1690602001909291905050506107c5565b005b6101b66004803603604081101561018057600080fd5b81019080803573ffffffffffffffffffffffffffffffffffffffff169060200190929190803590602001909291905050506108a0565b60405180806020018060200180602001848103845287818151815260200191508051906020019080838360005b838110156101fe5780820151818401526020810190506101e3565b50505050905090810190601f16801561022b5780820380516001836020036101000a031916815260200191505b50848103835286818151815260200191508051906020019080838360005b83811015610264578082015181840152602081019050610249565b50505050905090810190601f1680156102915780820380516001836020036101000a031916815260200191505b50848103825285818151815260200191508051906020019080838360005b838110156102ca5780820151818401526020810190506102af565b50505050905090810190601f1680156102f75780820380516001836020036101000a031916815260200191505b50965050505050505060405180910390f35b61044a6004803603608081101561031f57600080fd5b810190808035906020019064010000000081111561033c57600080fd5b82018360208201111561034e57600080fd5b8035906020019184600183028401116401000000008311171561037057600080fd5b90919293919293908035906020019064010000000081111561039157600080fd5b8201836020820111156103a357600080fd5b803590602001918460018302840111640100000000831117156103c557600080fd5b9091929391929390803590602001906401000000008111156103e657600080fd5b8201836020820111156103f857600080fd5b8035906020019184600183028401116401000000008311171561041a57600080fd5b9091929391929390803573ffffffffffffffffffffffffffffffffffffffff169060200190929190505050610b94565b6040518082815260200191505060405180910390f35b6104ac6004803603604081101561047657600080fd5b81019080803573ffffffffffffffffffffffffffffffffffffffff16906020019092919080359060200190929190505050610de9565b6040518080602001858152602001848152602001838152602001828103825286818151815260200191508051906020019080838360005b838110156104fe5780820151818401526020810190506104e3565b50505050905090810190601f16801561052b5780820380516001836020036101000a031916815260200191505b509550505050505060405180910390f35b6105886004803603604081101561055257600080fd5b81019080803573ffffffffffffffffffffffffffffffffffffffff16906020019092919080359060200190929190505050611008565b604051808981526020018060200180602001806020018060200188815260200187815260200186815260200185810385528c818151815260200191508051906020019080838360005b838110156105ec5780820151818401526020810190506105d1565b50505050905090810190601f1680156106195780820380516001836020036101000a031916815260200191505b5085810384528b818151815260200191508051906020019080838360005b83811015610652578082015181840152602081019050610637565b50505050905090810190601f16801561067f5780820380516001836020036101000a031916815260200191505b5085810383528a818151815260200191508051906020019080838360005b838110156106b857808201518184015260208101905061069d565b50505050905090810190601f1680156106e55780820380516001836020036101000a031916815260200191505b50858103825289818151815260200191508051906020019080838360005b8381101561071e578082015181840152602081019050610703565b50505050905090810190601f16801561074b5780820380516001836020036101000a031916815260200191505b509c5050505050505050505050505060405180910390f35b6107c36004803603608081101561077957600080fd5b8101908080359060200190929190803573ffffffffffffffffffffffffffffffffffffffff16906020019092919080359060200190929190803590602001909291905050506112ca565b005b60008060008373ffffffffffffffffffffffffffffffffffffffff1673ffffffffffffffffffffffffffffffffffffffff168152602001908152602001600020878154811061081057fe5b9060005260206000209060080201905085816003019080519060200190610838929190611381565b508481600501819055508381600601819055508281600701819055508173ffffffffffffffffffffffffffffffffffffffff167fc13fb7066f56c64c621e87e66defb70b362ad2398557d0c871c0fec6b6c23cc760405160405180910390a250505050505050565b60608060606000808673ffffffffffffffffffffffffffffffffffffffff1673ffffffffffffffffffffffffffffffffffffffff16815260200190815260200160002084815481106108ee57fe5b90600052602060002090600802016001016000808773ffffffffffffffffffffffffffffffffffffffff1673ffffffffffffffffffffffffffffffffffffffff168152602001908152602001600020858154811061094857fe5b90600052602060002090600802016002016000808873ffffffffffffffffffffffffffffffffffffffff1673ffffffffffffffffffffffffffffffffffffffff16815260200190815260200160002086815481106109a257fe5b9060005260206000209060080201600401828054600181600116156101000203166002900480601f016020809104026020016040519081016040528092919081815260200182805460018160011615610100020316600290048015610a485780601f10610a1d57610100808354040283529160200191610a48565b820191906000526020600020905b815481529060010190602001808311610a2b57829003601f168201915b50505050509250818054600181600116156101000203166002900480601f016020809104026020016040519081016040528092919081815260200182805460018160011615610100020316600290048015610ae45780601f10610ab957610100808354040283529160200191610ae4565b820191906000526020600020905b815481529060010190602001808311610ac757829003601f168201915b50505050509150808054600181600116156101000203166002900480601f016020809104026020016040519081016040528092919081815260200182805460018160011615610100020316600290048015610b805780601f10610b5557610100808354040283529160200191610b80565b820191906000526020600020905b815481529060010190602001808311610b6357829003601f168201915b505050505090509250925092509250925092565b6000610b9e611401565b6000808473ffffffffffffffffffffffffffffffffffffffff1673ffffffffffffffffffffffffffffffffffffffff1681526020019081526020016000208054905081600001818152505088888080601f016020809104026020016040519081016040528093929190818152602001838380828437600081840152601f19601f82011690508083019250505050505050816020018190525086868080601f016020809104026020016040519081016040528093929190818152602001838380828437600081840152601f19601f82011690508083019250505050505050816040018190525084848080601f016020809104026020016040519081016040528093929190818152602001838380828437600081840152601f19601f8201169050808301925050505050505081608001819052506000808473ffffffffffffffffffffffffffffffffffffffff1673ffffffffffffffffffffffffffffffffffffffff168152602001908152602001600020819080600181540180825580915050600190039060005260206000209060080201600090919091909150600082015181600001556020820151816001019080519060200190610d5e929190611381565b506040820151816002019080519060200190610d7b929190611381565b506060820151816003019080519060200190610d98929190611381565b506080820151816004019080519060200190610db5929190611381565b5060a0820151816005015560c0820151816006015560e0820151816007015550508060000151915050979650505050505050565b606060008060008060008773ffffffffffffffffffffffffffffffffffffffff1673ffffffffffffffffffffffffffffffffffffffff1681526020019081526020016000208581548110610e3957fe5b90600052602060002090600802016003016000808873ffffffffffffffffffffffffffffffffffffffff1673ffffffffffffffffffffffffffffffffffffffff1681526020019081526020016000208681548110610e9357fe5b9060005260206000209060080201600501546000808973ffffffffffffffffffffffffffffffffffffffff1673ffffffffffffffffffffffffffffffffffffffff1681526020019081526020016000208781548110610eee57fe5b9060005260206000209060080201600601546000808a73ffffffffffffffffffffffffffffffffffffffff1673ffffffffffffffffffffffffffffffffffffffff1681526020019081526020016000208881548110610f4957fe5b906000526020600020906008020160070154838054600181600116156101000203166002900480601f016020809104026020016040519081016040528092919081815260200182805460018160011615610100020316600290048015610ff05780601f10610fc557610100808354040283529160200191610ff0565b820191906000526020600020905b815481529060010190602001808311610fd357829003601f168201915b50505050509350935093509350935092959194509250565b6000602052816000526040600020818154811061102157fe5b906000526020600020906008020160009150915050806000015490806001018054600181600116156101000203166002900480601f0160208091040260200160405190810160405280929190818152602001828054600181600116156101000203166002900480156110d45780601f106110a9576101008083540402835291602001916110d4565b820191906000526020600020905b8154815290600101906020018083116110b757829003601f168201915b505050505090806002018054600181600116156101000203166002900480601f0160208091040260200160405190810160405280929190818152602001828054600181600116156101000203166002900480156111725780601f1061114757610100808354040283529160200191611172565b820191906000526020600020905b81548152906001019060200180831161115557829003601f168201915b505050505090806003018054600181600116156101000203166002900480601f0160208091040260200160405190810160405280929190818152602001828054600181600116156101000203166002900480156112105780601f106111e557610100808354040283529160200191611210565b820191906000526020600020905b8154815290600101906020018083116111f357829003601f168201915b505050505090806004018054600181600116156101000203166002900480601f0160208091040260200160405190810160405280929190818152602001828054600181600116156101000203166002900480156112ae5780601f10611283576101008083540402835291602001916112ae565b820191906000526020600020905b81548152906001019060200180831161129157829003601f168201915b5050505050908060050154908060060154908060070154905088565b60008060008573ffffffffffffffffffffffffffffffffffffffff1673ffffffffffffffffffffffffffffffffffffffff168152602001908152602001600020858154811061131557fe5b906000526020600020906008020190508281600701819055508181600501819055508373ffffffffffffffffffffffffffffffffffffffff167f04c0b82e01dafa77eb0a5376879d8d545a2cb07912f249492ba89341f8f1a4e460405160405180910390a25050505050565b828054600181600116156101000203166002900490600052602060002090601f016020900481019282601f106113c257805160ff19168380011785556113f0565b828001600101855582156113f0579182015b828111156113ef5782518255916020019190600101906113d4565b5b5090506113fd9190611446565b5090565b60405180610100016040528060008152602001606081526020016060815260200160608152602001606081526020016000815260200160008152602001600081525090565b5b8082111561145f576000816000905550600101611447565b509056fea2646970667358221220d3d7608ab4edc21edc716d82b7c87fde1adf67b63af19811e21993695977331f64736f6c63430007000033",
  "immutableReferences": {},
  "source": "// SPDX-License-Identifier: MIT\r\npragma solidity >=0.7.0;\r\n\r\nstruct Crop{\r\n    uint cropID;\r\n    string cropType;\r\n    string cropName; \r\n    string fertiliser;\r\n    string sourceTagNo;\r\n    uint quantity;\r\n    uint256 DateSowed;\r\n    uint256 DateHarvested;\r\n}\r\n\r\ncontract CropDetails{\r\n    \r\n    //event when farmer is added\r\n    event CropAdded(address indexed account);\r\n    event CropUpdated(address indexed account);\r\n    \r\n    mapping(address=>Crop[]) public crops;\r\n    \r\n    function addCrop1(string calldata cropType, string calldata cropName, string calldata sourceTagNo,\r\n         address farmerAddr) public returns (uint cropID){\r\n            Crop memory crop;\r\n            crop.cropID = crops[farmerAddr].length;\r\n            crop.cropType = cropType;\r\n            crop.cropName = cropName;\r\n            crop.sourceTagNo = sourceTagNo;\r\n            crops[farmerAddr].push(crop);\r\n            return crop.cropID;\r\n        }\r\n        \r\n    function addCrop2(uint cropID, string memory fertiliser, uint quantity, uint256 DateSowed,\r\n        uint256 DateHarvested, address farmerAddr) public{\r\n            Crop storage crop = crops[farmerAddr][cropID];\r\n            crop.fertiliser = fertiliser;\r\n            crop.quantity = quantity;\r\n            crop.DateSowed = DateSowed;\r\n            crop.DateHarvested = DateHarvested;\r\n            emit CropAdded(farmerAddr);\r\n        }\r\n        \r\n    function updateCrop(uint cropID, address farmerAddr, uint256 DateHarvested, uint quantity) public{\r\n        Crop storage crop = crops[farmerAddr][cropID];\r\n        crop.DateHarvested = DateHarvested;\r\n        crop.quantity = quantity;\r\n        emit CropUpdated(farmerAddr);\r\n    }\r\n    \r\n    function getCrop1(address farmerAddr, uint cropID) view public returns (string memory cropType, string memory cropName,\r\n    string memory sourceTagNo){\r\n        return (crops[farmerAddr][cropID].cropType, crops[farmerAddr][cropID].cropName,\r\n            crops[farmerAddr][cropID].sourceTagNo);\r\n    }\r\n        \r\n    function getCrop2(address farmerAddr, uint cropID) view public returns (string memory fertiliser,uint quantity,\r\n        uint256 DateSowed, uint256 DateHarvested){\r\n            return (crops[farmerAddr][cropID].fertiliser, crops[farmerAddr][cropID].quantity,\r\n                crops[farmerAddr][cropID].DateSowed, crops[farmerAddr][cropID].DateHarvested);\r\n    }\r\n}",
  "sourcePath": "C:/Users/mehta/Desktop/FYP/FYP2021/Agrochain/contracts/CropDetails.sol",
  "compiler": {
    "name": "solc",
    "version": "0.7.0+commit.9e61f92b.Emscripten.clang"
  },
  "schemaVersion": "3.3.3",
  "updatedAt": "2021-04-10T15:20:33.415Z",
  "networkType": "ethereum",
  "devdoc": {
    "kind": "dev",
    "methods": {},
    "version": 1
  },
  "userdoc": {
    "kind": "user",
    "methods": {},
    "version": 1
  }
}