{
  "contractName": "CropDetails",
  "abi": [
    {
      "anonymous": false,
      "inputs": [
        {
          "indexed": true,
          "internalType": "address",
          "name": "account",
          "type": "address"
        }
      ],
      "name": "CropAdded",
      "type": "event"
    },
    {
      "anonymous": false,
      "inputs": [
        {
          "indexed": true,
          "internalType": "address",
          "name": "account",
          "type": "address"
        }
      ],
      "name": "CropUpdated",
      "type": "event"
    },
    {
      "inputs": [
        {
          "internalType": "address",
          "name": "",
          "type": "address"
        },
        {
          "internalType": "uint256",
          "name": "",
          "type": "uint256"
        }
      ],
      "name": "crops",
      "outputs": [
        {
          "internalType": "uint256",
          "name": "cropID",
          "type": "uint256"
        },
        {
          "internalType": "string",
          "name": "cropType",
          "type": "string"
        },
        {
          "internalType": "string",
          "name": "cropName",
          "type": "string"
        },
        {
          "internalType": "string",
          "name": "fertiliser",
          "type": "string"
        },
        {
          "internalType": "string",
          "name": "sourceTagNo",
          "type": "string"
        },
        {
          "internalType": "uint256",
          "name": "quantity",
          "type": "uint256"
        },
        {
          "internalType": "uint256",
          "name": "DateSowed",
          "type": "uint256"
        },
        {
          "internalType": "uint256",
          "name": "DateHarvested",
          "type": "uint256"
        },
        {
          "internalType": "bool",
          "name": "sold",
          "type": "bool"
        }
      ],
      "stateMutability": "view",
      "type": "function",
      "constant": true
    },
    {
      "inputs": [
        {
          "internalType": "string",
          "name": "cropType",
          "type": "string"
        },
        {
          "internalType": "string",
          "name": "cropName",
          "type": "string"
        },
        {
          "internalType": "string",
          "name": "sourceTagNo",
          "type": "string"
        },
        {
          "internalType": "address",
          "name": "farmerAddr",
          "type": "address"
        }
      ],
      "name": "addCrop1",
      "outputs": [
        {
          "internalType": "uint256",
          "name": "cropID",
          "type": "uint256"
        }
      ],
      "stateMutability": "nonpayable",
      "type": "function"
    },
    {
      "inputs": [
        {
          "internalType": "uint256",
          "name": "cropID",
          "type": "uint256"
        },
        {
          "internalType": "string",
          "name": "fertiliser",
          "type": "string"
        },
        {
          "internalType": "uint256",
          "name": "quantity",
          "type": "uint256"
        },
        {
          "internalType": "uint256",
          "name": "DateSowed",
          "type": "uint256"
        },
        {
          "internalType": "uint256",
          "name": "DateHarvested",
          "type": "uint256"
        },
        {
          "internalType": "address",
          "name": "farmerAddr",
          "type": "address"
        }
      ],
      "name": "addCrop2",
      "outputs": [],
      "stateMutability": "nonpayable",
      "type": "function"
    },
    {
      "inputs": [
        {
          "internalType": "uint256",
          "name": "cropID",
          "type": "uint256"
        },
        {
          "internalType": "address",
          "name": "farmerAddr",
          "type": "address"
        },
        {
          "internalType": "uint256",
          "name": "DateHarvested",
          "type": "uint256"
        },
        {
          "internalType": "uint256",
          "name": "quantity",
          "type": "uint256"
        },
        {
          "internalType": "bool",
          "name": "sold",
          "type": "bool"
        }
      ],
      "name": "updateCrop",
      "outputs": [],
      "stateMutability": "nonpayable",
      "type": "function"
    },
    {
      "inputs": [
        {
          "internalType": "address",
          "name": "farmerAddr",
          "type": "address"
        },
        {
          "internalType": "uint256",
          "name": "cropID",
          "type": "uint256"
        }
      ],
      "name": "getCrop1",
      "outputs": [
        {
          "internalType": "string",
          "name": "cropType",
          "type": "string"
        },
        {
          "internalType": "string",
          "name": "cropName",
          "type": "string"
        },
        {
          "internalType": "string",
          "name": "sourceTagNo",
          "type": "string"
        },
        {
          "internalType": "bool",
          "name": "sold",
          "type": "bool"
        }
      ],
      "stateMutability": "view",
      "type": "function",
      "constant": true
    },
    {
      "inputs": [
        {
          "internalType": "address",
          "name": "farmerAddr",
          "type": "address"
        },
        {
          "internalType": "uint256",
          "name": "cropID",
          "type": "uint256"
        }
      ],
      "name": "getCrop2",
      "outputs": [
        {
          "internalType": "string",
          "name": "fertiliser",
          "type": "string"
        },
        {
          "internalType": "uint256",
          "name": "quantity",
          "type": "uint256"
        },
        {
          "internalType": "uint256",
          "name": "DateSowed",
          "type": "uint256"
        },
        {
          "internalType": "uint256",
          "name": "DateHarvested",
          "type": "uint256"
        }
      ],
      "stateMutability": "view",
      "type": "function",
      "constant": true
    },
    {
      "inputs": [
        {
          "internalType": "uint256",
          "name": "cropID",
          "type": "uint256"
        },
        {
          "internalType": "address",
          "name": "farmerAddr",
          "type": "address"
        }
      ],
      "name": "setSold",
      "outputs": [],
      "stateMutability": "nonpayable",
      "type": "function"
    }
  ],
  "bytecode": "0x608060405234801561001057600080fd5b506116c5806100206000396000f3fe608060405234801561001057600080fd5b506004361061007d5760003560e01c80632adc8d771161005b5780632adc8d7714610241578063541884a7146103e95780635ca2c20514610540578063a4a123f11461061c5761007d565b806303d484b3146100825780630ef4122a146100f05780631885f4f71461013e575b600080fd5b6100ee600480360360a081101561009857600080fd5b8101908080359060200190929190803573ffffffffffffffffffffffffffffffffffffffff169060200190929190803590602001909291908035906020019092919080351515906020019092919050505061084c565b005b61013c6004803603604081101561010657600080fd5b8101908080359060200190929190803573ffffffffffffffffffffffffffffffffffffffff169060200190929190505050610920565b005b61023f600480360360c081101561015457600080fd5b81019080803590602001909291908035906020019064010000000081111561017b57600080fd5b82018360208201111561018d57600080fd5b803590602001918460018302840111640100000000831117156101af57600080fd5b91908080601f016020809104026020016040519081016040528093929190818152602001838380828437600081840152601f19601f820116905080830192505050505050509192919290803590602001909291908035906020019092919080359060200190929190803573ffffffffffffffffffffffffffffffffffffffff1690602001909291905050506109e0565b005b61028d6004803603604081101561025757600080fd5b81019080803573ffffffffffffffffffffffffffffffffffffffff16906020019092919080359060200190929190505050610ad8565b604051808060200180602001806020018515158152602001848103845288818151815260200191508051906020019080838360005b838110156102dd5780820151818401526020810190506102c2565b50505050905090810190601f16801561030a5780820380516001836020036101000a031916815260200191505b50848103835287818151815260200191508051906020019080838360005b83811015610343578082015181840152602081019050610328565b50505050905090810190601f1680156103705780820380516001836020036101000a031916815260200191505b50848103825286818151815260200191508051906020019080838360005b838110156103a957808201518184015260208101905061038e565b50505050905090810190601f1680156103d65780820380516001836020036101000a031916815260200191505b5097505050505050505060405180910390f35b61052a600480360360808110156103ff57600080fd5b810190808035906020019064010000000081111561041c57600080fd5b82018360208201111561042e57600080fd5b8035906020019184600183028401116401000000008311171561045057600080fd5b90919293919293908035906020019064010000000081111561047157600080fd5b82018360208201111561048357600080fd5b803590602001918460018302840111640100000000831117156104a557600080fd5b9091929391929390803590602001906401000000008111156104c657600080fd5b8201836020820111156104d857600080fd5b803590602001918460018302840111640100000000831117156104fa57600080fd5b9091929391929390803573ffffffffffffffffffffffffffffffffffffffff169060200190929190505050610e3a565b6040518082815260200191505060405180910390f35b61058c6004803603604081101561055657600080fd5b81019080803573ffffffffffffffffffffffffffffffffffffffff169060200190929190803590602001909291905050506110b0565b6040518080602001858152602001848152602001838152602001828103825286818151815260200191508051906020019080838360005b838110156105de5780820151818401526020810190506105c3565b50505050905090810190601f16801561060b5780820380516001836020036101000a031916815260200191505b509550505050505060405180910390f35b6106686004803603604081101561063257600080fd5b81019080803573ffffffffffffffffffffffffffffffffffffffff169060200190929190803590602001909291905050506112cf565b604051808a815260200180602001806020018060200180602001898152602001888152602001878152602001861515815260200185810385528d818151815260200191508051906020019080838360005b838110156106d45780820151818401526020810190506106b9565b50505050905090810190601f1680156107015780820380516001836020036101000a031916815260200191505b5085810384528c818151815260200191508051906020019080838360005b8381101561073a57808201518184015260208101905061071f565b50505050905090810190601f1680156107675780820380516001836020036101000a031916815260200191505b5085810383528b818151815260200191508051906020019080838360005b838110156107a0578082015181840152602081019050610785565b50505050905090810190601f1680156107cd5780820380516001836020036101000a031916815260200191505b5085810382528a818151815260200191508051906020019080838360005b838110156108065780820151818401526020810190506107eb565b50505050905090810190601f1680156108335780820380516001836020036101000a031916815260200191505b509d505050505050505050505050505060405180910390f35b60008060008673ffffffffffffffffffffffffffffffffffffffff1673ffffffffffffffffffffffffffffffffffffffff168152602001908152602001600020868154811061089757fe5b90600052602060002090600902019050838160070181905550828160050181905550818160080160006101000a81548160ff0219169083151502179055508473ffffffffffffffffffffffffffffffffffffffff167f04c0b82e01dafa77eb0a5376879d8d545a2cb07912f249492ba89341f8f1a4e460405160405180910390a2505050505050565b60008060008373ffffffffffffffffffffffffffffffffffffffff1673ffffffffffffffffffffffffffffffffffffffff168152602001908152602001600020838154811061096b57fe5b9060005260206000209060090201905060018160080160006101000a81548160ff0219169083151502179055508173ffffffffffffffffffffffffffffffffffffffff167f04c0b82e01dafa77eb0a5376879d8d545a2cb07912f249492ba89341f8f1a4e460405160405180910390a2505050565b60008060008373ffffffffffffffffffffffffffffffffffffffff1673ffffffffffffffffffffffffffffffffffffffff1681526020019081526020016000208781548110610a2b57fe5b9060005260206000209060090201905085816003019080519060200190610a539291906115a4565b5084816005018190555083816006018190555082816007018190555060008160080160006101000a81548160ff0219169083151502179055508173ffffffffffffffffffffffffffffffffffffffff167fc13fb7066f56c64c621e87e66defb70b362ad2398557d0c871c0fec6b6c23cc760405160405180910390a250505050505050565b606080606060008060008773ffffffffffffffffffffffffffffffffffffffff1673ffffffffffffffffffffffffffffffffffffffff1681526020019081526020016000208581548110610b2857fe5b90600052602060002090600902016001016000808873ffffffffffffffffffffffffffffffffffffffff1673ffffffffffffffffffffffffffffffffffffffff1681526020019081526020016000208681548110610b8257fe5b90600052602060002090600902016002016000808973ffffffffffffffffffffffffffffffffffffffff1673ffffffffffffffffffffffffffffffffffffffff1681526020019081526020016000208781548110610bdc57fe5b90600052602060002090600902016004016000808a73ffffffffffffffffffffffffffffffffffffffff1673ffffffffffffffffffffffffffffffffffffffff1681526020019081526020016000208881548110610c3657fe5b906000526020600020906009020160080160009054906101000a900460ff16838054600181600116156101000203166002900480601f016020809104026020016040519081016040528092919081815260200182805460018160011615610100020316600290048015610cea5780601f10610cbf57610100808354040283529160200191610cea565b820191906000526020600020905b815481529060010190602001808311610ccd57829003601f168201915b50505050509350828054600181600116156101000203166002900480601f016020809104026020016040519081016040528092919081815260200182805460018160011615610100020316600290048015610d865780601f10610d5b57610100808354040283529160200191610d86565b820191906000526020600020905b815481529060010190602001808311610d6957829003601f168201915b50505050509250818054600181600116156101000203166002900480601f016020809104026020016040519081016040528092919081815260200182805460018160011615610100020316600290048015610e225780601f10610df757610100808354040283529160200191610e22565b820191906000526020600020905b815481529060010190602001808311610e0557829003601f168201915b50505050509150935093509350935092959194509250565b6000610e44611624565b6000808473ffffffffffffffffffffffffffffffffffffffff1673ffffffffffffffffffffffffffffffffffffffff1681526020019081526020016000208054905081600001818152505088888080601f016020809104026020016040519081016040528093929190818152602001838380828437600081840152601f19601f82011690508083019250505050505050816020018190525086868080601f016020809104026020016040519081016040528093929190818152602001838380828437600081840152601f19601f82011690508083019250505050505050816040018190525084848080601f016020809104026020016040519081016040528093929190818152602001838380828437600081840152601f19601f8201169050808301925050505050505081608001819052506000808473ffffffffffffffffffffffffffffffffffffffff1673ffffffffffffffffffffffffffffffffffffffff1681526020019081526020016000208190806001815401808255809150506001900390600052602060002090600902016000909190919091506000820151816000015560208201518160010190805190602001906110049291906115a4565b5060408201518160020190805190602001906110219291906115a4565b50606082015181600301908051906020019061103e9291906115a4565b50608082015181600401908051906020019061105b9291906115a4565b5060a0820151816005015560c0820151816006015560e082015181600701556101008201518160080160006101000a81548160ff02191690831515021790555050508060000151915050979650505050505050565b606060008060008060008773ffffffffffffffffffffffffffffffffffffffff1673ffffffffffffffffffffffffffffffffffffffff168152602001908152602001600020858154811061110057fe5b90600052602060002090600902016003016000808873ffffffffffffffffffffffffffffffffffffffff1673ffffffffffffffffffffffffffffffffffffffff168152602001908152602001600020868154811061115a57fe5b9060005260206000209060090201600501546000808973ffffffffffffffffffffffffffffffffffffffff1673ffffffffffffffffffffffffffffffffffffffff16815260200190815260200160002087815481106111b557fe5b9060005260206000209060090201600601546000808a73ffffffffffffffffffffffffffffffffffffffff1673ffffffffffffffffffffffffffffffffffffffff168152602001908152602001600020888154811061121057fe5b906000526020600020906009020160070154838054600181600116156101000203166002900480601f0160208091040260200160405190810160405280929190818152602001828054600181600116156101000203166002900480156112b75780601f1061128c576101008083540402835291602001916112b7565b820191906000526020600020905b81548152906001019060200180831161129a57829003601f168201915b50505050509350935093509350935092959194509250565b600060205281600052604060002081815481106112e857fe5b906000526020600020906009020160009150915050806000015490806001018054600181600116156101000203166002900480601f01602080910402602001604051908101604052809291908181526020018280546001816001161561010002031660029004801561139b5780601f106113705761010080835404028352916020019161139b565b820191906000526020600020905b81548152906001019060200180831161137e57829003601f168201915b505050505090806002018054600181600116156101000203166002900480601f0160208091040260200160405190810160405280929190818152602001828054600181600116156101000203166002900480156114395780601f1061140e57610100808354040283529160200191611439565b820191906000526020600020905b81548152906001019060200180831161141c57829003601f168201915b505050505090806003018054600181600116156101000203166002900480601f0160208091040260200160405190810160405280929190818152602001828054600181600116156101000203166002900480156114d75780601f106114ac576101008083540402835291602001916114d7565b820191906000526020600020905b8154815290600101906020018083116114ba57829003601f168201915b505050505090806004018054600181600116156101000203166002900480601f0160208091040260200160405190810160405280929190818152602001828054600181600116156101000203166002900480156115755780601f1061154a57610100808354040283529160200191611575565b820191906000526020600020905b81548152906001019060200180831161155857829003601f168201915b5050505050908060050154908060060154908060070154908060080160009054906101000a900460ff16905089565b828054600181600116156101000203166002900490600052602060002090601f016020900481019282601f106115e557805160ff1916838001178555611613565b82800160010185558215611613579182015b828111156116125782518255916020019190600101906115f7565b5b5090506116209190611672565b5090565b60405180610120016040528060008152602001606081526020016060815260200160608152602001606081526020016000815260200160008152602001600081526020016000151581525090565b5b8082111561168b576000816000905550600101611673565b509056fea2646970667358221220ecba56166611f7737cb1d3f40116caaa7f7f58ade41ccbb3526e9cc95f908e3f64736f6c63430007000033",
  "immutableReferences": {},
  "source": "// SPDX-License-Identifier: MIT\r\npragma solidity >=0.7.0;\r\n\r\nstruct Crop{\r\n    uint cropID;\r\n    string cropType;\r\n    string cropName; \r\n    string fertiliser;\r\n    string sourceTagNo;\r\n    uint quantity;\r\n    uint256 DateSowed;\r\n    uint256 DateHarvested;\r\n    bool sold;\r\n}\r\n\r\ncontract CropDetails{\r\n    \r\n    //event when farmer is added\r\n    event CropAdded(address indexed account);\r\n    event CropUpdated(address indexed account);\r\n    \r\n    mapping(address=>Crop[]) public crops;\r\n    \r\n    function addCrop1(string calldata cropType, string calldata cropName, string calldata sourceTagNo,\r\n         address farmerAddr) public returns (uint cropID){\r\n            Crop memory crop;\r\n            crop.cropID = crops[farmerAddr].length;\r\n            crop.cropType = cropType;\r\n            crop.cropName = cropName;\r\n            crop.sourceTagNo = sourceTagNo;\r\n            crops[farmerAddr].push(crop);\r\n            return crop.cropID;\r\n        }\r\n        \r\n    function addCrop2(uint cropID, string memory fertiliser, uint quantity, uint256 DateSowed,\r\n        uint256 DateHarvested, address farmerAddr) public{\r\n            Crop storage crop = crops[farmerAddr][cropID];\r\n            crop.fertiliser = fertiliser;\r\n            crop.quantity = quantity;\r\n            crop.DateSowed = DateSowed;\r\n            crop.DateHarvested = DateHarvested;\r\n            crop.sold = false;\r\n            emit CropAdded(farmerAddr);\r\n        }\r\n        \r\n    function updateCrop(uint cropID, address farmerAddr, uint256 DateHarvested, uint quantity, bool sold) public{\r\n        Crop storage crop = crops[farmerAddr][cropID];\r\n        crop.DateHarvested = DateHarvested;\r\n        crop.quantity = quantity;\r\n        crop.sold = sold;\r\n        emit CropUpdated(farmerAddr);\r\n    }\r\n    \r\n    function getCrop1(address farmerAddr, uint cropID) view public returns (string memory cropType, string memory cropName,\r\n    string memory sourceTagNo, bool sold){\r\n        return (crops[farmerAddr][cropID].cropType, crops[farmerAddr][cropID].cropName,\r\n            crops[farmerAddr][cropID].sourceTagNo, crops[farmerAddr][cropID].sold);\r\n    }\r\n        \r\n    function getCrop2(address farmerAddr, uint cropID) view public returns (string memory fertiliser,uint quantity,\r\n        uint256 DateSowed, uint256 DateHarvested){\r\n            return (crops[farmerAddr][cropID].fertiliser, crops[farmerAddr][cropID].quantity,\r\n                crops[farmerAddr][cropID].DateSowed, crops[farmerAddr][cropID].DateHarvested);\r\n    }\r\n\r\n    function setSold(uint cropID, address farmerAddr) public{\r\n        Crop storage crop = crops[farmerAddr][cropID];\r\n        crop.sold = true;\r\n        emit CropUpdated(farmerAddr);\r\n    }\r\n}",
  "sourcePath": "C:/Users/VRUDDHI MEHTA/Desktop/VRUDDHI/Agrochain/Agrochain/contracts/CropDetails.sol",
  "compiler": {
    "name": "solc",
    "version": "0.7.0+commit.9e61f92b.Emscripten.clang"
  },
  "schemaVersion": "3.3.4",
  "updatedAt": "2021-04-12T18:25:09.384Z",
  "networkType": "ethereum",
  "devdoc": {
    "kind": "dev",
    "methods": {},
    "version": 1
  },
  "userdoc": {
    "kind": "user",
    "methods": {},
    "version": 1
  }
}