{
  "contractName": "CropDetails",
  "abi": [
    {
      "anonymous": false,
      "inputs": [
        {
          "indexed": true,
          "internalType": "address",
          "name": "account",
          "type": "address"
        }
      ],
      "name": "CropAdded",
      "type": "event"
    },
    {
      "anonymous": false,
      "inputs": [
        {
          "indexed": true,
          "internalType": "address",
          "name": "account",
          "type": "address"
        }
      ],
      "name": "CropUpdated",
      "type": "event"
    },
    {
      "inputs": [
        {
          "internalType": "string",
          "name": "cropType",
          "type": "string"
        },
        {
          "internalType": "string",
          "name": "cropName",
          "type": "string"
        },
        {
          "internalType": "string",
          "name": "sourceTagNo",
          "type": "string"
        },
        {
          "internalType": "address",
          "name": "farmerAddr",
          "type": "address"
        }
      ],
      "name": "addCrop1",
      "outputs": [
        {
          "internalType": "uint256",
          "name": "cropID",
          "type": "uint256"
        }
      ],
      "stateMutability": "nonpayable",
      "type": "function"
    },
    {
      "inputs": [
        {
          "internalType": "uint256",
          "name": "cropID",
          "type": "uint256"
        },
        {
          "internalType": "string",
          "name": "fertiliser",
          "type": "string"
        },
        {
          "internalType": "uint256",
          "name": "quantity",
          "type": "uint256"
        },
        {
          "internalType": "uint256",
          "name": "DateSowed",
          "type": "uint256"
        },
        {
          "internalType": "address",
          "name": "farmerAddr",
          "type": "address"
        }
      ],
      "name": "addCrop2",
      "outputs": [],
      "stateMutability": "nonpayable",
      "type": "function"
    },
    {
      "inputs": [
        {
          "internalType": "uint256",
          "name": "cropID",
          "type": "uint256"
        },
        {
          "internalType": "address",
          "name": "farmerAddr",
          "type": "address"
        },
        {
          "internalType": "uint256",
          "name": "DateHarvested",
          "type": "uint256"
        }
      ],
      "name": "updateHarvestDate",
      "outputs": [],
      "stateMutability": "nonpayable",
      "type": "function"
    },
    {
      "inputs": [
        {
          "internalType": "address",
          "name": "farmerAddr",
          "type": "address"
        },
        {
          "internalType": "uint256",
          "name": "cropID",
          "type": "uint256"
        }
      ],
      "name": "getCrop1",
      "outputs": [
        {
          "internalType": "string",
          "name": "cropType",
          "type": "string"
        },
        {
          "internalType": "string",
          "name": "cropName",
          "type": "string"
        },
        {
          "internalType": "string",
          "name": "sourceTagNo",
          "type": "string"
        }
      ],
      "stateMutability": "nonpayable",
      "type": "function"
    },
    {
      "inputs": [
        {
          "internalType": "address",
          "name": "farmerAddr",
          "type": "address"
        },
        {
          "internalType": "uint256",
          "name": "cropID",
          "type": "uint256"
        }
      ],
      "name": "getCrop2",
      "outputs": [
        {
          "internalType": "string",
          "name": "fertiliser",
          "type": "string"
        },
        {
          "internalType": "uint256",
          "name": "quantity",
          "type": "uint256"
        },
        {
          "internalType": "uint256",
          "name": "DateSowed",
          "type": "uint256"
        },
        {
          "internalType": "uint256",
          "name": "DateHarvested",
          "type": "uint256"
        }
      ],
      "stateMutability": "nonpayable",
      "type": "function"
    }
  ],
  "bytecode": "0x608060405234801561001057600080fd5b50610f7d806100206000396000f3fe608060405234801561001057600080fd5b50600436106100575760003560e01c80632adc8d771461005c578063541884a7146101fb5780635ca2c2051461035257806374f7efed1461042e578063af4e0a3a14610486575b600080fd5b6100a86004803603604081101561007257600080fd5b81019080803573ffffffffffffffffffffffffffffffffffffffff1690602001909291908035906020019092919050505061057f565b60405180806020018060200180602001848103845287818151815260200191508051906020019080838360005b838110156100f05780820151818401526020810190506100d5565b50505050905090810190601f16801561011d5780820380516001836020036101000a031916815260200191505b50848103835286818151815260200191508051906020019080838360005b8381101561015657808201518184015260208101905061013b565b50505050905090810190601f1680156101835780820380516001836020036101000a031916815260200191505b50848103825285818151815260200191508051906020019080838360005b838110156101bc5780820151818401526020810190506101a1565b50505050905090810190601f1680156101e95780820380516001836020036101000a031916815260200191505b50965050505050505060405180910390f35b61033c6004803603608081101561021157600080fd5b810190808035906020019064010000000081111561022e57600080fd5b82018360208201111561024057600080fd5b8035906020019184600183028401116401000000008311171561026257600080fd5b90919293919293908035906020019064010000000081111561028357600080fd5b82018360208201111561029557600080fd5b803590602001918460018302840111640100000000831117156102b757600080fd5b9091929391929390803590602001906401000000008111156102d857600080fd5b8201836020820111156102ea57600080fd5b8035906020019184600183028401116401000000008311171561030c57600080fd5b9091929391929390803573ffffffffffffffffffffffffffffffffffffffff169060200190929190505050610873565b6040518082815260200191505060405180910390f35b61039e6004803603604081101561036857600080fd5b81019080803573ffffffffffffffffffffffffffffffffffffffff16906020019092919080359060200190929190505050610ac8565b6040518080602001858152602001848152602001838152602001828103825286818151815260200191508051906020019080838360005b838110156103f05780820151818401526020810190506103d5565b50505050905090810190601f16801561041d5780820380516001836020036101000a031916815260200191505b509550505050505060405180910390f35b6104846004803603606081101561044457600080fd5b8101908080359060200190929190803573ffffffffffffffffffffffffffffffffffffffff16906020019092919080359060200190929190505050610ce7565b005b61057d600480360360a081101561049c57600080fd5b8101908080359060200190929190803590602001906401000000008111156104c357600080fd5b8201836020820111156104d557600080fd5b803590602001918460018302840111640100000000831117156104f757600080fd5b91908080601f016020809104026020016040519081016040528093929190818152602001838380828437600081840152601f19601f8201169050808301925050505050505091929192908035906020019092919080359060200190929190803573ffffffffffffffffffffffffffffffffffffffff169060200190929190505050610d94565b005b60608060606000808673ffffffffffffffffffffffffffffffffffffffff1673ffffffffffffffffffffffffffffffffffffffff16815260200190815260200160002084815481106105cd57fe5b90600052602060002090600802016001016000808773ffffffffffffffffffffffffffffffffffffffff1673ffffffffffffffffffffffffffffffffffffffff168152602001908152602001600020858154811061062757fe5b90600052602060002090600802016002016000808873ffffffffffffffffffffffffffffffffffffffff1673ffffffffffffffffffffffffffffffffffffffff168152602001908152602001600020868154811061068157fe5b9060005260206000209060080201600401828054600181600116156101000203166002900480601f0160208091040260200160405190810160405280929190818152602001828054600181600116156101000203166002900480156107275780601f106106fc57610100808354040283529160200191610727565b820191906000526020600020905b81548152906001019060200180831161070a57829003601f168201915b50505050509250818054600181600116156101000203166002900480601f0160208091040260200160405190810160405280929190818152602001828054600181600116156101000203166002900480156107c35780601f10610798576101008083540402835291602001916107c3565b820191906000526020600020905b8154815290600101906020018083116107a657829003601f168201915b50505050509150808054600181600116156101000203166002900480601f01602080910402602001604051908101604052809291908181526020018280546001816001161561010002031660029004801561085f5780601f106108345761010080835404028352916020019161085f565b820191906000526020600020905b81548152906001019060200180831161084257829003601f168201915b505050505090509250925092509250925092565b600061087d610e65565b6000808473ffffffffffffffffffffffffffffffffffffffff1673ffffffffffffffffffffffffffffffffffffffff1681526020019081526020016000208054905081600001818152505088888080601f016020809104026020016040519081016040528093929190818152602001838380828437600081840152601f19601f82011690508083019250505050505050816020018190525086868080601f016020809104026020016040519081016040528093929190818152602001838380828437600081840152601f19601f82011690508083019250505050505050816040018190525084848080601f016020809104026020016040519081016040528093929190818152602001838380828437600081840152601f19601f8201169050808301925050505050505081608001819052506000808473ffffffffffffffffffffffffffffffffffffffff1673ffffffffffffffffffffffffffffffffffffffff168152602001908152602001600020819080600181540180825580915050600190039060005260206000209060080201600090919091909150600082015181600001556020820151816001019080519060200190610a3d929190610eaa565b506040820151816002019080519060200190610a5a929190610eaa565b506060820151816003019080519060200190610a77929190610eaa565b506080820151816004019080519060200190610a94929190610eaa565b5060a0820151816005015560c0820151816006015560e0820151816007015550508060000151915050979650505050505050565b606060008060008060008773ffffffffffffffffffffffffffffffffffffffff1673ffffffffffffffffffffffffffffffffffffffff1681526020019081526020016000208581548110610b1857fe5b90600052602060002090600802016003016000808873ffffffffffffffffffffffffffffffffffffffff1673ffffffffffffffffffffffffffffffffffffffff1681526020019081526020016000208681548110610b7257fe5b9060005260206000209060080201600501546000808973ffffffffffffffffffffffffffffffffffffffff1673ffffffffffffffffffffffffffffffffffffffff1681526020019081526020016000208781548110610bcd57fe5b9060005260206000209060080201600601546000808a73ffffffffffffffffffffffffffffffffffffffff1673ffffffffffffffffffffffffffffffffffffffff1681526020019081526020016000208881548110610c2857fe5b906000526020600020906008020160070154838054600181600116156101000203166002900480601f016020809104026020016040519081016040528092919081815260200182805460018160011615610100020316600290048015610ccf5780601f10610ca457610100808354040283529160200191610ccf565b820191906000526020600020905b815481529060010190602001808311610cb257829003601f168201915b50505050509350935093509350935092959194509250565b60008060008473ffffffffffffffffffffffffffffffffffffffff1673ffffffffffffffffffffffffffffffffffffffff1681526020019081526020016000208481548110610d3257fe5b906000526020600020906008020190508181600701819055508273ffffffffffffffffffffffffffffffffffffffff167f04c0b82e01dafa77eb0a5376879d8d545a2cb07912f249492ba89341f8f1a4e460405160405180910390a250505050565b60008060008373ffffffffffffffffffffffffffffffffffffffff1673ffffffffffffffffffffffffffffffffffffffff1681526020019081526020016000208681548110610ddf57fe5b9060005260206000209060080201905084816003019080519060200190610e07929190610eaa565b508381600501819055508281600601819055508173ffffffffffffffffffffffffffffffffffffffff167fc13fb7066f56c64c621e87e66defb70b362ad2398557d0c871c0fec6b6c23cc760405160405180910390a2505050505050565b60405180610100016040528060008152602001606081526020016060815260200160608152602001606081526020016000815260200160008152602001600081525090565b828054600181600116156101000203166002900490600052602060002090601f016020900481019282601f10610eeb57805160ff1916838001178555610f19565b82800160010185558215610f19579182015b82811115610f18578251825591602001919060010190610efd565b5b509050610f269190610f2a565b5090565b5b80821115610f43576000816000905550600101610f2b565b509056fea264697066735822122015d3ae08d00e5c29bb98d1237e4c5fca4916fdb2058ed67dbf0dcc948cf9bc1f64736f6c63430007000033",
  "immutableReferences": {},
  "source": "pragma solidity ^0.7.0;\n\nstruct Crop{\n    uint cropID;\n    string cropType;\n    string cropName; \n    string fertiliser;\n    string sourceTagNo;\n    uint quantity;\n    uint256 DateSowed;\n    uint256 DateHarvested;\n}\n\ncontract CropDetails{\n    \n    //event when farmer is added\n    event CropAdded(address indexed account);\n    event CropUpdated(address indexed account);\n    \n    mapping(address=>Crop[]) crops;\n    \n    function addCrop1(string calldata cropType, string calldata cropName, string calldata sourceTagNo,\n         address farmerAddr) public returns (uint cropID){\n            Crop memory crop;\n            crop.cropID = crops[farmerAddr].length;\n            crop.cropType = cropType;\n            crop.cropName = cropName;\n            crop.sourceTagNo = sourceTagNo;\n            crops[farmerAddr].push(crop);\n            return crop.cropID;\n        }\n        \n    function addCrop2(uint cropID, string memory fertiliser, uint quantity, uint256 DateSowed,\n        address farmerAddr) public{\n            Crop storage crop = crops[farmerAddr][cropID];\n            crop.fertiliser = fertiliser;\n            crop.quantity = quantity;\n            crop.DateSowed = DateSowed;\n            emit CropAdded(farmerAddr);\n        }\n        \n    function updateHarvestDate(uint cropID, address farmerAddr, uint256 DateHarvested) public{\n        Crop storage crop = crops[farmerAddr][cropID];\n        crop.DateHarvested = DateHarvested;\n        emit CropUpdated(farmerAddr);\n    }\n    \n    function getCrop1(address farmerAddr, uint cropID) public returns (string memory cropType, string memory cropName,\n    string memory sourceTagNo){\n        return (crops[farmerAddr][cropID].cropType, crops[farmerAddr][cropID].cropName,\n            crops[farmerAddr][cropID].sourceTagNo);\n    }\n        \n    function getCrop2(address farmerAddr, uint cropID) public returns (string memory fertiliser,uint quantity,\n        uint256 DateSowed, uint256 DateHarvested){\n            return (crops[farmerAddr][cropID].fertiliser, crops[farmerAddr][cropID].quantity,\n                crops[farmerAddr][cropID].DateSowed, crops[farmerAddr][cropID].DateHarvested);\n    }\n}",
  "sourcePath": "C:/Users/vidhi/Desktop/FYP2021/Agrochain/contracts/CropDetails.sol",
  "compiler": {
    "name": "solc",
    "version": "0.7.0+commit.9e61f92b.Emscripten.clang"
  },
  "schemaVersion": "3.3.3",
  "updatedAt": "2020-12-24T08:17:43.112Z",
  "networkType": "ethereum",
  "devdoc": {
    "kind": "dev",
    "methods": {},
    "version": 1
  },
  "userdoc": {
    "kind": "user",
    "methods": {},
    "version": 1
  }
}