{
  "contractName": "FarmerDetails",
  "abi": [
    {
      "anonymous": false,
      "inputs": [
        {
          "indexed": true,
          "internalType": "address",
          "name": "account",
          "type": "address"
        }
      ],
      "name": "FarmerAdded",
      "type": "event"
    },
    {
      "anonymous": false,
      "inputs": [
        {
          "indexed": true,
          "internalType": "address",
          "name": "account",
          "type": "address"
        }
      ],
      "name": "PlotAdded",
      "type": "event"
    },
    {
      "anonymous": false,
      "inputs": [
        {
          "indexed": true,
          "internalType": "address",
          "name": "account",
          "type": "address"
        }
      ],
      "name": "PlotUpdated",
      "type": "event"
    },
    {
      "inputs": [
        {
          "internalType": "uint256",
          "name": "",
          "type": "uint256"
        }
      ],
      "name": "farmerAccts",
      "outputs": [
        {
          "internalType": "address",
          "name": "",
          "type": "address"
        }
      ],
      "stateMutability": "view",
      "type": "function"
    },
    {
      "inputs": [
        {
          "internalType": "address",
          "name": "_address",
          "type": "address"
        },
        {
          "internalType": "string",
          "name": "_farmerName",
          "type": "string"
        },
        {
          "internalType": "string",
          "name": "_plotOwner",
          "type": "string"
        },
        {
          "internalType": "string",
          "name": "_plotNumber",
          "type": "string"
        },
        {
          "internalType": "string",
          "name": "_plotAddress",
          "type": "string"
        },
        {
          "internalType": "bool",
          "name": "_approved",
          "type": "bool"
        }
      ],
      "name": "addFarmer",
      "outputs": [],
      "stateMutability": "nonpayable",
      "type": "function"
    },
    {
      "inputs": [
        {
          "internalType": "address",
          "name": "_address",
          "type": "address"
        },
        {
          "internalType": "string",
          "name": "_plotOwner",
          "type": "string"
        },
        {
          "internalType": "string",
          "name": "_plotNumber",
          "type": "string"
        },
        {
          "internalType": "string",
          "name": "_plotAddress",
          "type": "string"
        }
      ],
      "name": "addPlot",
      "outputs": [],
      "stateMutability": "nonpayable",
      "type": "function"
    },
    {
      "inputs": [
        {
          "internalType": "address",
          "name": "_address",
          "type": "address"
        }
      ],
      "name": "deletePlot",
      "outputs": [],
      "stateMutability": "nonpayable",
      "type": "function"
    },
    {
      "inputs": [],
      "name": "getFarmers",
      "outputs": [
        {
          "internalType": "address[]",
          "name": "",
          "type": "address[]"
        }
      ],
      "stateMutability": "view",
      "type": "function"
    },
    {
      "inputs": [
        {
          "internalType": "address",
          "name": "_address",
          "type": "address"
        },
        {
          "internalType": "uint256",
          "name": "index",
          "type": "uint256"
        }
      ],
      "name": "getFarmer",
      "outputs": [
        {
          "internalType": "string",
          "name": "",
          "type": "string"
        },
        {
          "internalType": "string",
          "name": "",
          "type": "string"
        },
        {
          "internalType": "string",
          "name": "",
          "type": "string"
        },
        {
          "internalType": "string",
          "name": "",
          "type": "string"
        },
        {
          "internalType": "bool",
          "name": "",
          "type": "bool"
        }
      ],
      "stateMutability": "view",
      "type": "function"
    }
  ],
  "bytecode": "0x608060405234801561001057600080fd5b50611260806100206000396000f3fe608060405234801561001057600080fd5b50600436106100625760003560e01c80633f8a4970146100675780635ce42028146100ab578063789f8d40146102b4578063d7ff7a0614610313578063de7f27a614610527578063e51ea1c0146107d3575b600080fd5b6100a96004803603602081101561007d57600080fd5b81019080803573ffffffffffffffffffffffffffffffffffffffff16906020019092919050505061082b565b005b6102b2600480360360808110156100c157600080fd5b81019080803573ffffffffffffffffffffffffffffffffffffffff169060200190929190803590602001906401000000008111156100fe57600080fd5b82018360208201111561011057600080fd5b8035906020019184600183028401116401000000008311171561013257600080fd5b91908080601f016020809104026020016040519081016040528093929190818152602001838380828437600081840152601f19601f8201169050808301925050505050505091929192908035906020019064010000000081111561019557600080fd5b8201836020820111156101a757600080fd5b803590602001918460018302840111640100000000831117156101c957600080fd5b91908080601f016020809104026020016040519081016040528093929190818152602001838380828437600081840152601f19601f8201169050808301925050505050505091929192908035906020019064010000000081111561022c57600080fd5b82018360208201111561023e57600080fd5b8035906020019184600183028401116401000000008311171561026057600080fd5b91908080601f016020809104026020016040519081016040528093929190818152602001838380828437600081840152601f19601f82011690508083019250505050505050919291929050505061087b565b005b6102bc6109a2565b6040518080602001828103825283818151815260200191508051906020019060200280838360005b838110156102ff5780820151818401526020810190506102e4565b505050509050019250505060405180910390f35b61035f6004803603604081101561032957600080fd5b81019080803573ffffffffffffffffffffffffffffffffffffffff16906020019092919080359060200190929190505050610a30565b6040518080602001806020018060200180602001861515815260200185810385528a818151815260200191508051906020019080838360005b838110156103b3578082015181840152602081019050610398565b50505050905090810190601f1680156103e05780820380516001836020036101000a031916815260200191505b50858103845289818151815260200191508051906020019080838360005b838110156104195780820151818401526020810190506103fe565b50505050905090810190601f1680156104465780820380516001836020036101000a031916815260200191505b50858103835288818151815260200191508051906020019080838360005b8381101561047f578082015181840152602081019050610464565b50505050905090810190601f1680156104ac5780820380516001836020036101000a031916815260200191505b50858103825287818151815260200191508051906020019080838360005b838110156104e55780820151818401526020810190506104ca565b50505050905090810190601f1680156105125780820380516001836020036101000a031916815260200191505b50995050505050505050505060405180910390f35b6107d1600480360360c081101561053d57600080fd5b81019080803573ffffffffffffffffffffffffffffffffffffffff1690602001909291908035906020019064010000000081111561057a57600080fd5b82018360208201111561058c57600080fd5b803590602001918460018302840111640100000000831117156105ae57600080fd5b91908080601f016020809104026020016040519081016040528093929190818152602001838380828437600081840152601f19601f8201169050808301925050505050505091929192908035906020019064010000000081111561061157600080fd5b82018360208201111561062357600080fd5b8035906020019184600183028401116401000000008311171561064557600080fd5b91908080601f016020809104026020016040519081016040528093929190818152602001838380828437600081840152601f19601f820116905080830192505050505050509192919290803590602001906401000000008111156106a857600080fd5b8201836020820111156106ba57600080fd5b803590602001918460018302840111640100000000831117156106dc57600080fd5b91908080601f016020809104026020016040519081016040528093929190818152602001838380828437600081840152601f19601f8201169050808301925050505050505091929192908035906020019064010000000081111561073f57600080fd5b82018360208201111561075157600080fd5b8035906020019184600183028401116401000000008311171561077357600080fd5b91908080601f016020809104026020016040519081016040528093929190818152602001838380828437600081840152601f19601f820116905080830192505050505050509192919290803515159060200190929190505050610e63565b005b6107ff600480360360208110156107e957600080fd5b810190808035906020019092919050505061109e565b604051808273ffffffffffffffffffffffffffffffffffffffff16815260200191505060405180910390f35b6000808273ffffffffffffffffffffffffffffffffffffffff1673ffffffffffffffffffffffffffffffffffffffff168152602001908152602001600020600101600061087891906110da565b50565b6000808573ffffffffffffffffffffffffffffffffffffffff1673ffffffffffffffffffffffffffffffffffffffff1681526020019081526020016000206001016040518060600160405280858152602001848152602001838152509080600181540180825580915050600190039060005260206000209060030201600090919091909150600082015181600001908051906020019061091c9291906110fe565b5060208201518160010190805190602001906109399291906110fe565b5060408201518160020190805190602001906109569291906110fe565b5050508373ffffffffffffffffffffffffffffffffffffffff167f49c3346a33049a2c503d747a1fb0abd26a33fbff638d8623a4c697326a9d2e6860405160405180910390a250505050565b60606001805480602002602001604051908101604052809291908181526020018280548015610a2657602002820191906000526020600020905b8160009054906101000a900473ffffffffffffffffffffffffffffffffffffffff1673ffffffffffffffffffffffffffffffffffffffff16815260200190600101908083116109dc575b5050505050905090565b60608060608060008060008873ffffffffffffffffffffffffffffffffffffffff1673ffffffffffffffffffffffffffffffffffffffff1681526020019081526020016000206000016000808973ffffffffffffffffffffffffffffffffffffffff1673ffffffffffffffffffffffffffffffffffffffff1681526020019081526020016000206001018781548110610ac557fe5b90600052602060002090600302016000016000808a73ffffffffffffffffffffffffffffffffffffffff1673ffffffffffffffffffffffffffffffffffffffff1681526020019081526020016000206001018881548110610b2257fe5b90600052602060002090600302016001016000808b73ffffffffffffffffffffffffffffffffffffffff1673ffffffffffffffffffffffffffffffffffffffff1681526020019081526020016000206001018981548110610b7f57fe5b90600052602060002090600302016002016000808c73ffffffffffffffffffffffffffffffffffffffff1673ffffffffffffffffffffffffffffffffffffffff16815260200190815260200160002060020160009054906101000a900460ff16848054600181600116156101000203166002900480601f016020809104026020016040519081016040528092919081815260200182805460018160011615610100020316600290048015610c745780601f10610c4957610100808354040283529160200191610c74565b820191906000526020600020905b815481529060010190602001808311610c5757829003601f168201915b50505050509450838054600181600116156101000203166002900480601f016020809104026020016040519081016040528092919081815260200182805460018160011615610100020316600290048015610d105780601f10610ce557610100808354040283529160200191610d10565b820191906000526020600020905b815481529060010190602001808311610cf357829003601f168201915b50505050509350828054600181600116156101000203166002900480601f016020809104026020016040519081016040528092919081815260200182805460018160011615610100020316600290048015610dac5780601f10610d8157610100808354040283529160200191610dac565b820191906000526020600020905b815481529060010190602001808311610d8f57829003601f168201915b50505050509250818054600181600116156101000203166002900480601f016020809104026020016040519081016040528092919081815260200182805460018160011615610100020316600290048015610e485780601f10610e1d57610100808354040283529160200191610e48565b820191906000526020600020905b815481529060010190602001808311610e2b57829003601f168201915b50505050509150945094509450945094509295509295909350565b6000808773ffffffffffffffffffffffffffffffffffffffff1673ffffffffffffffffffffffffffffffffffffffff16815260200190815260200160002060010160405180606001604052808681526020018581526020018481525090806001815401808255809150506001900390600052602060002090600302016000909190919091506000820151816000019080519060200190610f049291906110fe565b506020820151816001019080519060200190610f219291906110fe565b506040820151816002019080519060200190610f3e9291906110fe565b505050846000808873ffffffffffffffffffffffffffffffffffffffff1673ffffffffffffffffffffffffffffffffffffffff1681526020019081526020016000206000019080519060200190610f969291906110fe565b50806000808873ffffffffffffffffffffffffffffffffffffffff1673ffffffffffffffffffffffffffffffffffffffff16815260200190815260200160002060020160006101000a81548160ff0219169083151502179055506001869080600181540180825580915050600190039060005260206000200160009091909190916101000a81548173ffffffffffffffffffffffffffffffffffffffff021916908373ffffffffffffffffffffffffffffffffffffffff1602179055508573ffffffffffffffffffffffffffffffffffffffff167f2e0ded4123377a3c2bc9a26f1717655a129e2f20752924d42e730ec89c83dbd060405160405180910390a2505050505050565b600181815481106110ab57fe5b906000526020600020016000915054906101000a900473ffffffffffffffffffffffffffffffffffffffff1681565b50805460008255600302906000526020600020908101906110fb919061117e565b50565b828054600181600116156101000203166002900490600052602060002090601f016020900481019282601f1061113f57805160ff191683800117855561116d565b8280016001018555821561116d579182015b8281111561116c578251825591602001919060010190611151565b5b50905061117a91906111c5565b5090565b5b808211156111c1576000808201600061119891906111e2565b6001820160006111a891906111e2565b6002820160006111b891906111e2565b5060030161117f565b5090565b5b808211156111de5760008160009055506001016111c6565b5090565b50805460018160011615610100020316600290046000825580601f106112085750611227565b601f01602090049060005260206000209081019061122691906111c5565b5b5056fea2646970667358221220fe5c1e1c3be1d747dd3f09f44049382470e9e8efb1bb73ca7f854a6119ac665964736f6c63430007000033",
  "immutableReferences": {},
  "source": "// SPDX-License-Identifier: MIT\r\npragma solidity >=0.7.0;\r\n\r\nstruct Plot{\r\n    string owner;\r\n    string plotNumber;\r\n    string plotAddress;\r\n}\r\n\r\nstruct Farmer{\r\n   string name;\r\n   Plot[] plots;\r\n   bool approved;\r\n}\r\n\r\ncontract FarmerDetails{\r\n    \r\n    event FarmerAdded(address indexed account);\r\n    event PlotAdded(address indexed account);\r\n    event PlotUpdated(address indexed account);\r\n    \r\n    mapping(address =>Farmer) farmers;\r\n    address[] public farmerAccts;\r\n    \r\n    function addFarmer(address _address, string memory _farmerName, string memory _plotOwner, string memory _plotNumber, string memory _plotAddress, bool _approved) \r\n        public{\r\n        farmers[_address].plots.push(Plot(_plotOwner,_plotNumber,_plotAddress));\r\n        farmers[_address].name = _farmerName;\r\n        farmers[_address].approved = _approved;\r\n        farmerAccts.push(_address);\r\n        emit FarmerAdded(_address);\r\n        \r\n    }\r\n    \r\n    function addPlot(address _address, string memory _plotOwner, string memory _plotNumber, string memory _plotAddress)\r\n        public{\r\n        farmers[_address].plots.push(Plot(_plotOwner,_plotNumber,_plotAddress));\r\n        emit PlotAdded(_address);\r\n    }\r\n    \r\n    function deletePlot(address _address) public{\r\n        delete farmers[_address].plots;\r\n    }\r\n    \r\n    function getFarmers() view public returns(address[] memory){\r\n        return farmerAccts;\r\n    }\r\n    \r\n    function getFarmer(address _address, uint index) view public \r\n        returns(string memory , string memory , string memory , string memory , bool){\r\n            return (farmers[_address].name, farmers[_address].plots[index].owner, farmers[_address].plots[index].plotNumber, farmers[_address].plots[index].plotAddress, farmers[_address].approved);\r\n    }\r\n    \r\n}",
  "sourcePath": "C:/Users/mehta/Desktop/FYP/FYP2021/Agrochain/contracts/FarmerDetails.sol",
  "compiler": {
    "name": "solc",
    "version": "0.7.0+commit.9e61f92b.Emscripten.clang"
  },
  "schemaVersion": "3.3.3",
  "updatedAt": "2021-04-10T06:06:00.787Z",
  "devdoc": {
    "kind": "dev",
    "methods": {},
    "version": 1
  },
  "userdoc": {
    "kind": "user",
    "methods": {},
    "version": 1
  }
}