{
  "contractName": "LogisticsDetails",
  "abi": [
    {
      "anonymous": false,
      "inputs": [
        {
          "indexed": false,
          "internalType": "uint256",
          "name": "LogId",
          "type": "uint256"
        }
      ],
      "name": "LogDataAdded",
      "type": "event"
    },
    {
      "inputs": [
        {
          "internalType": "uint256",
          "name": "",
          "type": "uint256"
        }
      ],
      "name": "LogIds",
      "outputs": [
        {
          "internalType": "uint256",
          "name": "",
          "type": "uint256"
        }
      ],
      "stateMutability": "view",
      "type": "function",
      "constant": true
    },
    {
      "inputs": [
        {
          "internalType": "uint256",
          "name": "_id",
          "type": "uint256"
        },
        {
          "internalType": "string",
          "name": "_vehicleType",
          "type": "string"
        },
        {
          "internalType": "string",
          "name": "_vehicleNo",
          "type": "string"
        },
        {
          "internalType": "string",
          "name": "_driverName",
          "type": "string"
        },
        {
          "internalType": "uint256",
          "name": "_driverContact",
          "type": "uint256"
        },
        {
          "internalType": "uint256",
          "name": "_dateDispatched",
          "type": "uint256"
        }
      ],
      "name": "addLogistic",
      "outputs": [],
      "stateMutability": "nonpayable",
      "type": "function"
    },
    {
      "inputs": [],
      "name": "getAllLogs",
      "outputs": [
        {
          "internalType": "uint256[]",
          "name": "",
          "type": "uint256[]"
        }
      ],
      "stateMutability": "view",
      "type": "function",
      "constant": true
    },
    {
      "inputs": [
        {
          "internalType": "uint256",
          "name": "LID",
          "type": "uint256"
        }
      ],
      "name": "getLog",
      "outputs": [
        {
          "internalType": "uint256",
          "name": "",
          "type": "uint256"
        },
        {
          "internalType": "string",
          "name": "",
          "type": "string"
        },
        {
          "internalType": "string",
          "name": "",
          "type": "string"
        },
        {
          "internalType": "string",
          "name": "",
          "type": "string"
        },
        {
          "internalType": "uint256",
          "name": "",
          "type": "uint256"
        },
        {
          "internalType": "uint256",
          "name": "",
          "type": "uint256"
        }
      ],
      "stateMutability": "view",
      "type": "function",
      "constant": true
    }
  ],
  "bytecode": "0x608060405234801561001057600080fd5b50610981806100206000396000f3fe608060405234801561001057600080fd5b506004361061004c5760003560e01c8063197e1b2d146100515780633206b2c614610093578063b584fef214610227578063e581329b1461042e575b600080fd5b61007d6004803603602081101561006757600080fd5b810190808035906020019092919050505061048d565b6040518082815260200191505060405180910390f35b6100bf600480360360208110156100a957600080fd5b81019080803590602001909291905050506104ae565b60405180878152602001806020018060200180602001868152602001858152602001848103845289818151815260200191508051906020019080838360005b838110156101195780820151818401526020810190506100fe565b50505050905090810190601f1680156101465780820380516001836020036101000a031916815260200191505b50848103835288818151815260200191508051906020019080838360005b8381101561017f578082015181840152602081019050610164565b50505050905090810190601f1680156101ac5780820380516001836020036101000a031916815260200191505b50848103825287818151815260200191508051906020019080838360005b838110156101e55780820151818401526020810190506101ca565b50505050905090810190601f1680156102125780820380516001836020036101000a031916815260200191505b50995050505050505050505060405180910390f35b61042c600480360360c081101561023d57600080fd5b81019080803590602001909291908035906020019064010000000081111561026457600080fd5b82018360208201111561027657600080fd5b8035906020019184600183028401116401000000008311171561029857600080fd5b91908080601f016020809104026020016040519081016040528093929190818152602001838380828437600081840152601f19601f820116905080830192505050505050509192919290803590602001906401000000008111156102fb57600080fd5b82018360208201111561030d57600080fd5b8035906020019184600183028401116401000000008311171561032f57600080fd5b91908080601f016020809104026020016040519081016040528093929190818152602001838380828437600081840152601f19601f8201169050808301925050505050505091929192908035906020019064010000000081111561039257600080fd5b8201836020820111156103a457600080fd5b803590602001918460018302840111640100000000831117156103c657600080fd5b91908080601f016020809104026020016040519081016040528093929190818152602001838380828437600081840152601f19601f8201169050808301925050505050505091929192908035906020019092919080359060200190929190505050610722565b005b610436610856565b6040518080602001828103825283818151815260200191508051906020019060200280838360005b8381101561047957808201518184015260208101905061045e565b505050509050019250505060405180910390f35b6001818154811061049a57fe5b906000526020600020016000915090505481565b60006060806060600080600080888152602001908152602001600020600001546000808981526020019081526020016000206001016000808a81526020019081526020016000206002016000808b81526020019081526020016000206003016000808c8152602001908152602001600020600401546000808d815260200190815260200160002060050154848054600181600116156101000203166002900480601f0160208091040260200160405190810160405280929190818152602001828054600181600116156101000203166002900480156105ce5780601f106105a3576101008083540402835291602001916105ce565b820191906000526020600020905b8154815290600101906020018083116105b157829003601f168201915b50505050509450838054600181600116156101000203166002900480601f01602080910402602001604051908101604052809291908181526020018280546001816001161561010002031660029004801561066a5780601f1061063f5761010080835404028352916020019161066a565b820191906000526020600020905b81548152906001019060200180831161064d57829003601f168201915b50505050509350828054600181600116156101000203166002900480601f0160208091040260200160405190810160405280929190818152602001828054600181600116156101000203166002900480156107065780601f106106db57610100808354040283529160200191610706565b820191906000526020600020905b8154815290600101906020018083116106e957829003601f168201915b5050505050925095509550955095509550955091939550919395565b6001869080600181540180825580915050600190039060005260206000200160009091909190915055856000808881526020019081526020016000206000018190555084600080888152602001908152602001600020600101908051906020019061078e9291906108ae565b508360008088815260200190815260200160002060020190805190602001906107b89291906108ae565b508260008088815260200190815260200160002060030190805190602001906107e29291906108ae565b50816000808881526020019081526020016000206004018190555080600080888152602001908152602001600020600501819055507fda39151f98ac043ba47fb41b6784335b6ee659eac34af2aa955d8417037e0732866040518082815260200191505060405180910390a1505050505050565b606060018054806020026020016040519081016040528092919081815260200182805480156108a457602002820191906000526020600020905b815481526020019060010190808311610890575b5050505050905090565b828054600181600116156101000203166002900490600052602060002090601f016020900481019282601f106108ef57805160ff191683800117855561091d565b8280016001018555821561091d579182015b8281111561091c578251825591602001919060010190610901565b5b50905061092a919061092e565b5090565b5b8082111561094757600081600090555060010161092f565b509056fea264697066735822122041fefcd71408c3c243a6e5513107034da25783ada7f3ef66c577c0aaec38200264736f6c63430007000033",
  "immutableReferences": {},
  "source": "// SPDX-License-Identifier: MIT\r\npragma solidity >=0.7.0;\r\n\r\nstruct Logistics{\r\n    uint id;\r\n    string vehicleType;\r\n    string vehicleNo;\r\n    string driverName;\r\n    uint driverContact;\r\n    uint dateDispatched;\r\n}\r\n\r\ncontract LogisticsDetails{\r\n    event LogDataAdded(uint LogId);\r\n\r\n    mapping (uint => Logistics) logs;\r\n    uint[] public LogIds;\r\n\r\n    function addLogistic(uint _id, string memory _vehicleType, string memory _vehicleNo, string memory _driverName, uint _driverContact, uint _dateDispatched)\r\n    public {\r\n        LogIds.push(_id);\r\n        logs[_id].id = _id;\r\n        logs[_id].vehicleType = _vehicleType;\r\n        logs[_id].vehicleNo = _vehicleNo;\r\n        logs[_id].driverName = _driverName;\r\n        logs[_id].driverContact = _driverContact;\r\n        logs[_id].dateDispatched = _dateDispatched;\r\n\r\n        emit LogDataAdded(_id);\r\n    }\r\n\r\n    function getAllLogs() view public returns(uint[] memory){\r\n        return LogIds;\r\n    }\r\n\r\n    function getLog(uint LID) view public\r\n        returns(uint, string memory, string memory, string memory, uint, uint) {\r\n            return (logs[LID].id, logs[LID].vehicleType, logs[LID].vehicleNo, logs[LID].driverName, logs[LID].driverContact, logs[LID].dateDispatched);\r\n        }\r\n}",
  "sourcePath": "C:/Users/mehta/Desktop/FYP/FYP2021/Agrochain/contracts/Logistics.sol",
  "compiler": {
    "name": "solc",
    "version": "0.7.0+commit.9e61f92b.Emscripten.clang"
  },
  "schemaVersion": "3.3.3",
  "updatedAt": "2021-04-10T15:20:33.470Z",
  "networkType": "ethereum",
  "devdoc": {
    "kind": "dev",
    "methods": {},
    "version": 1
  },
  "userdoc": {
    "kind": "user",
    "methods": {},
    "version": 1
  }
}