{
  "contractName": "LogisticsDetails",
  "abi": [
    {
      "anonymous": false,
      "inputs": [
        {
          "indexed": false,
          "internalType": "string",
          "name": "packageId",
          "type": "string"
        }
      ],
      "name": "LogDataAdded",
      "type": "event"
    },
    {
      "inputs": [
        {
          "internalType": "string",
          "name": "_packageId",
          "type": "string"
        },
        {
          "internalType": "string",
          "name": "_vehicleType",
          "type": "string"
        },
        {
          "internalType": "string",
          "name": "_vehicleNo",
          "type": "string"
        },
        {
          "internalType": "string",
          "name": "_driverName",
          "type": "string"
        },
        {
          "internalType": "uint256",
          "name": "_driverContact",
          "type": "uint256"
        },
        {
          "internalType": "uint256",
          "name": "_dateDispatched",
          "type": "uint256"
        }
      ],
      "name": "addLogistic",
      "outputs": [],
      "stateMutability": "nonpayable",
      "type": "function"
    },
    {
      "inputs": [
        {
          "internalType": "string",
          "name": "_packageId",
          "type": "string"
        }
      ],
      "name": "getLog",
      "outputs": [
        {
          "internalType": "string",
          "name": "",
          "type": "string"
        },
        {
          "internalType": "string",
          "name": "",
          "type": "string"
        },
        {
          "internalType": "string",
          "name": "",
          "type": "string"
        },
        {
          "internalType": "string",
          "name": "",
          "type": "string"
        },
        {
          "internalType": "uint256",
          "name": "",
          "type": "uint256"
        },
        {
          "internalType": "uint256",
          "name": "",
          "type": "uint256"
        },
        {
          "internalType": "string",
          "name": "",
          "type": "string"
        }
      ],
      "stateMutability": "view",
      "type": "function",
      "constant": true
    }
  ],
  "bytecode": "0x608060405234801561001057600080fd5b50611044806100206000396000f3fe608060405234801561001057600080fd5b50600436106100365760003560e01c8063369c487b1461003b578063c2709cfa1461032d575b600080fd5b6100f46004803603602081101561005157600080fd5b810190808035906020019064010000000081111561006e57600080fd5b82018360208201111561008057600080fd5b803590602001918460018302840111640100000000831117156100a257600080fd5b91908080601f016020809104026020016040519081016040528093929190818152602001838380828437600081840152601f19601f8201169050808301925050505050505091929192905050506105c1565b60405180806020018060200180602001806020018881526020018781526020018060200186810386528d818151815260200191508051906020019080838360005b83811015610150578082015181840152602081019050610135565b50505050905090810190601f16801561017d5780820380516001836020036101000a031916815260200191505b5086810385528c818151815260200191508051906020019080838360005b838110156101b657808201518184015260208101905061019b565b50505050905090810190601f1680156101e35780820380516001836020036101000a031916815260200191505b5086810384528b818151815260200191508051906020019080838360005b8381101561021c578082015181840152602081019050610201565b50505050905090810190601f1680156102495780820380516001836020036101000a031916815260200191505b5086810383528a818151815260200191508051906020019080838360005b83811015610282578082015181840152602081019050610267565b50505050905090810190601f1680156102af5780820380516001836020036101000a031916815260200191505b50868103825287818151815260200191508051906020019080838360005b838110156102e85780820151818401526020810190506102cd565b50505050905090810190601f1680156103155780820380516001836020036101000a031916815260200191505b509c5050505050505050505050505060405180910390f35b6105bf600480360360c081101561034357600080fd5b810190808035906020019064010000000081111561036057600080fd5b82018360208201111561037257600080fd5b8035906020019184600183028401116401000000008311171561039457600080fd5b91908080601f016020809104026020016040519081016040528093929190818152602001838380828437600081840152601f19601f820116905080830192505050505050509192919290803590602001906401000000008111156103f757600080fd5b82018360208201111561040957600080fd5b8035906020019184600183028401116401000000008311171561042b57600080fd5b91908080601f016020809104026020016040519081016040528093929190818152602001838380828437600081840152601f19601f8201169050808301925050505050505091929192908035906020019064010000000081111561048e57600080fd5b8201836020820111156104a057600080fd5b803590602001918460018302840111640100000000831117156104c257600080fd5b91908080601f016020809104026020016040519081016040528093929190818152602001838380828437600081840152601f19601f8201169050808301925050505050505091929192908035906020019064010000000081111561052557600080fd5b82018360208201111561053757600080fd5b8035906020019184600183028401116401000000008311171561055957600080fd5b91908080601f016020809104026020016040519081016040528093929190818152602001838380828437600081840152601f19601f8201169050808301925050505050505091929192908035906020019092919080359060200190929190505050610be7565b005b60608060608060008060606000886040518082805190602001908083835b6020831061060257805182526020820191506020810190506020830392506105df565b6001836020036101000a03801982511681845116808217855250505050505090500191505090815260200160405180910390206000016000896040518082805190602001908083835b6020831061066e578051825260208201915060208101905060208303925061064b565b6001836020036101000a038019825116818451168082178552505050505050905001915050908152602001604051809103902060010160008a6040518082805190602001908083835b602083106106da57805182526020820191506020810190506020830392506106b7565b6001836020036101000a038019825116818451168082178552505050505050905001915050908152602001604051809103902060020160008b6040518082805190602001908083835b602083106107465780518252602082019150602081019050602083039250610723565b6001836020036101000a038019825116818451168082178552505050505050905001915050908152602001604051809103902060030160008c6040518082805190602001908083835b602083106107b2578051825260208201915060208101905060208303925061078f565b6001836020036101000a03801982511681845116808217855250505050505090500191505090815260200160405180910390206004015460008d6040518082805190602001908083835b6020831061081f57805182526020820191506020810190506020830392506107fc565b6001836020036101000a03801982511681845116808217855250505050505090500191505090815260200160405180910390206005015460008e6040518082805190602001908083835b6020831061088c5780518252602082019150602081019050602083039250610869565b6001836020036101000a0380198251168184511680821785525050505050509050019150509081526020016040518091039020600001868054600181600116156101000203166002900480601f0160208091040260200160405190810160405280929190818152602001828054600181600116156101000203166002900480156109575780601f1061092c57610100808354040283529160200191610957565b820191906000526020600020905b81548152906001019060200180831161093a57829003601f168201915b50505050509650858054600181600116156101000203166002900480601f0160208091040260200160405190810160405280929190818152602001828054600181600116156101000203166002900480156109f35780601f106109c8576101008083540402835291602001916109f3565b820191906000526020600020905b8154815290600101906020018083116109d657829003601f168201915b50505050509550848054600181600116156101000203166002900480601f016020809104026020016040519081016040528092919081815260200182805460018160011615610100020316600290048015610a8f5780601f10610a6457610100808354040283529160200191610a8f565b820191906000526020600020905b815481529060010190602001808311610a7257829003601f168201915b50505050509450838054600181600116156101000203166002900480601f016020809104026020016040519081016040528092919081815260200182805460018160011615610100020316600290048015610b2b5780601f10610b0057610100808354040283529160200191610b2b565b820191906000526020600020905b815481529060010190602001808311610b0e57829003601f168201915b50505050509350808054600181600116156101000203166002900480601f016020809104026020016040519081016040528092919081815260200182805460018160011615610100020316600290048015610bc75780601f10610b9c57610100808354040283529160200191610bc7565b820191906000526020600020905b815481529060010190602001808311610baa57829003601f168201915b505050505090509650965096509650965096509650919395979092949650565b856000876040518082805190602001908083835b60208310610c1e5780518252602082019150602081019050602083039250610bfb565b6001836020036101000a03801982511681845116808217855250505050505090500191505090815260200160405180910390206000019080519060200190610c67929190610f71565b50846000876040518082805190602001908083835b60208310610c9f5780518252602082019150602081019050602083039250610c7c565b6001836020036101000a03801982511681845116808217855250505050505090500191505090815260200160405180910390206001019080519060200190610ce8929190610f71565b50836000876040518082805190602001908083835b60208310610d205780518252602082019150602081019050602083039250610cfd565b6001836020036101000a03801982511681845116808217855250505050505090500191505090815260200160405180910390206002019080519060200190610d69929190610f71565b50826000876040518082805190602001908083835b60208310610da15780518252602082019150602081019050602083039250610d7e565b6001836020036101000a03801982511681845116808217855250505050505090500191505090815260200160405180910390206003019080519060200190610dea929190610f71565b50816000876040518082805190602001908083835b60208310610e225780518252602082019150602081019050602083039250610dff565b6001836020036101000a038019825116818451168082178552505050505050905001915050908152602001604051809103902060040181905550806000876040518082805190602001908083835b60208310610e935780518252602082019150602081019050602083039250610e70565b6001836020036101000a0380198251168184511680821785525050505050509050019150509081526020016040518091039020600501819055507fbc18ef3ae4abe10c1bee61e6cec0ed96ca4d7e8d7b29ad5ff7eadb0d9b068d3c866040518080602001828103825283818151815260200191508051906020019080838360005b83811015610f2f578082015181840152602081019050610f14565b50505050905090810190601f168015610f5c5780820380516001836020036101000a031916815260200191505b509250505060405180910390a1505050505050565b828054600181600116156101000203166002900490600052602060002090601f016020900481019282601f10610fb257805160ff1916838001178555610fe0565b82800160010185558215610fe0579182015b82811115610fdf578251825591602001919060010190610fc4565b5b509050610fed9190610ff1565b5090565b5b8082111561100a576000816000905550600101610ff2565b509056fea26469706673582212204d88cc2eb6800f71e6ac922d76dea35559228d3196a863cccdd3996c0cbfb80d64736f6c63430007000033",
  "immutableReferences": {},
  "source": "// SPDX-License-Identifier: MIT\npragma solidity >=0.7.0;\n\nstruct Logistics{\n    string packageId;\n    string vehicleType;\n    string vehicleNo;\n    string driverName;\n    uint driverContact;\n    uint dateDispatched;\n}\n\ncontract LogisticsDetails{\n    event LogDataAdded(string packageId);\n\n    mapping (string => Logistics) logs;\n\n    function addLogistic(string memory _packageId, string memory _vehicleType, string memory _vehicleNo, string memory _driverName, uint _driverContact, uint _dateDispatched)\n    public {\n        \n        logs[_packageId].packageId = _packageId;\n        logs[_packageId].vehicleType = _vehicleType;\n        logs[_packageId].vehicleNo = _vehicleNo;\n        logs[_packageId].driverName = _driverName;\n        logs[_packageId].driverContact = _driverContact;\n        logs[_packageId].dateDispatched = _dateDispatched;\n\n        emit LogDataAdded(_packageId);\n    }\n\n    function getLog(string memory _packageId) view public\n        returns(string memory, string memory, string memory, string memory, uint, uint, string memory) {\n            return (logs[_packageId].packageId, logs[_packageId].vehicleType, logs[_packageId].vehicleNo, logs[_packageId].driverName, logs[_packageId].driverContact, logs[_packageId].dateDispatched, logs[_packageId].packageId);\n        }\n}",
  "sourcePath": "C:/Users/vidhi/Desktop/FYP2021/Agrochain/contracts/Logistics.sol",
  "compiler": {
    "name": "solc",
    "version": "0.7.0+commit.9e61f92b.Emscripten.clang"
  },
  "schemaVersion": "3.3.3",
  "updatedAt": "2021-04-12T16:01:25.262Z",
  "networkType": "ethereum",
  "devdoc": {
    "kind": "dev",
    "methods": {},
    "version": 1
  },
  "userdoc": {
    "kind": "user",
    "methods": {},
    "version": 1
  }
}