{
  "contractName": "Login",
  "abi": [
    {
      "inputs": [
        {
          "internalType": "address",
          "name": "addr",
          "type": "address"
        },
        {
          "internalType": "string",
          "name": "email",
          "type": "string"
        },
        {
          "internalType": "string",
          "name": "pwdHash",
          "type": "string"
        },
        {
          "internalType": "string",
          "name": "role",
          "type": "string"
        }
      ],
      "name": "addUser",
      "outputs": [],
      "stateMutability": "nonpayable",
      "type": "function"
    },
    {
      "inputs": [
        {
          "internalType": "string",
          "name": "email",
          "type": "string"
        }
      ],
      "name": "getUser",
      "outputs": [
        {
          "internalType": "string",
          "name": "pwdHash",
          "type": "string"
        },
        {
          "internalType": "string",
          "name": "role",
          "type": "string"
        },
        {
          "internalType": "address",
          "name": "addr",
          "type": "address"
        }
      ],
      "stateMutability": "view",
      "type": "function",
      "constant": true
    }
  ],
  "bytecode": "0x608060405234801561001057600080fd5b50610935806100206000396000f3fe608060405234801561001057600080fd5b50600436106100365760003560e01c806331feb6711461003b578063c6361c22146101f8575b600080fd5b6100f46004803603602081101561005157600080fd5b810190808035906020019064010000000081111561006e57600080fd5b82018360208201111561008057600080fd5b803590602001918460018302840111640100000000831117156100a257600080fd5b91908080601f016020809104026020016040519081016040528093929190818152602001838380828437600081840152601f19601f820116905080830192505050505050509192919290505050610401565b6040518080602001806020018473ffffffffffffffffffffffffffffffffffffffff168152602001838103835286818151815260200191508051906020019080838360005b83811015610154578082015181840152602081019050610139565b50505050905090810190601f1680156101815780820380516001836020036101000a031916815260200191505b50838103825285818151815260200191508051906020019080838360005b838110156101ba57808201518184015260208101905061019f565b50505050905090810190601f1680156101e75780820380516001836020036101000a031916815260200191505b509550505050505060405180910390f35b6103ff6004803603608081101561020e57600080fd5b81019080803573ffffffffffffffffffffffffffffffffffffffff1690602001909291908035906020019064010000000081111561024b57600080fd5b82018360208201111561025d57600080fd5b8035906020019184600183028401116401000000008311171561027f57600080fd5b91908080601f016020809104026020016040519081016040528093929190818152602001838380828437600081840152601f19601f820116905080830192505050505050509192919290803590602001906401000000008111156102e257600080fd5b8201836020820111156102f457600080fd5b8035906020019184600183028401116401000000008311171561031657600080fd5b91908080601f016020809104026020016040519081016040528093929190818152602001838380828437600081840152601f19601f8201169050808301925050505050505091929192908035906020019064010000000081111561037957600080fd5b82018360208201111561038b57600080fd5b803590602001918460018302840111640100000000831117156103ad57600080fd5b91908080601f016020809104026020016040519081016040528093929190818152602001838380828437600081840152601f19601f8201169050808301925050505050505091929192905050506106af565b005b606080600080846040518082805190602001908083835b6020831061043b5780518252602082019150602081019050602083039250610418565b6001836020036101000a03801982511681845116808217855250505050505090500191505090815260200160405180910390206000016000856040518082805190602001908083835b602083106104a75780518252602082019150602081019050602083039250610484565b6001836020036101000a03801982511681845116808217855250505050505090500191505090815260200160405180910390206001016000866040518082805190602001908083835b6020831061051357805182526020820191506020810190506020830392506104f0565b6001836020036101000a038019825116818451168082178552505050505050905001915050908152602001604051809103902060020160009054906101000a900473ffffffffffffffffffffffffffffffffffffffff16828054600181600116156101000203166002900480601f0160208091040260200160405190810160405280929190818152602001828054600181600116156101000203166002900480156105ff5780601f106105d4576101008083540402835291602001916105ff565b820191906000526020600020905b8154815290600101906020018083116105e257829003601f168201915b50505050509250818054600181600116156101000203166002900480601f01602080910402602001604051908101604052809291908181526020018280546001816001161561010002031660029004801561069b5780601f106106705761010080835404028352916020019161069b565b820191906000526020600020905b81548152906001019060200180831161067e57829003601f168201915b505050505091509250925092509193909250565b816000846040518082805190602001908083835b602083106106e657805182526020820191506020810190506020830392506106c3565b6001836020036101000a0380198251168184511680821785525050505050509050019150509081526020016040518091039020600001908051906020019061072f929190610862565b50806000846040518082805190602001908083835b602083106107675780518252602082019150602081019050602083039250610744565b6001836020036101000a038019825116818451168082178552505050505050905001915050908152602001604051809103902060010190805190602001906107b0929190610862565b50836000846040518082805190602001908083835b602083106107e857805182526020820191506020810190506020830392506107c5565b6001836020036101000a038019825116818451168082178552505050505050905001915050908152602001604051809103902060020160006101000a81548173ffffffffffffffffffffffffffffffffffffffff021916908373ffffffffffffffffffffffffffffffffffffffff16021790555050505050565b828054600181600116156101000203166002900490600052602060002090601f016020900481019282601f106108a357805160ff19168380011785556108d1565b828001600101855582156108d1579182015b828111156108d05782518255916020019190600101906108b5565b5b5090506108de91906108e2565b5090565b5b808211156108fb5760008160009055506001016108e3565b509056fea2646970667358221220cf7a2812db21193bd473a7d474bad5d5e86060247052c56b3f868057aaae806864736f6c63430007000033",
  "immutableReferences": {},
  "source": "pragma solidity ^0.7.0;\r\n\r\nstruct User{\r\n    string pwdHash;\r\n    string role;\r\n    address addr;\r\n}\r\n\r\ncontract Login{\r\n    \r\n    mapping(string=>User) users;\r\n    \r\n    function addUser(address addr, string memory email, string memory pwdHash, string memory role) public{\r\n        users[email].pwdHash = pwdHash;\r\n        users[email].role = role;\r\n        users[email].addr = addr;\r\n    }\r\n    \r\n    function getUser(string memory email) view public returns(string memory pwdHash, string memory role, address addr){\r\n        return (users[email].pwdHash, users[email].role, users[email].addr);\r\n    }\r\n}",
  "sourcePath": "C:/Users/RIYA/Downloads/FYP2021/Agrochain/contracts/User.sol",
  "compiler": {
    "name": "solc",
    "version": "0.7.0+commit.9e61f92b.Emscripten.clang"
  },
  "schemaVersion": "3.3.1",
  "updatedAt": "2020-12-29T13:40:06.116Z",
  "networkType": "ethereum",
  "devdoc": {
    "kind": "dev",
    "methods": {},
    "version": 1
  },
  "userdoc": {
    "kind": "user",
    "methods": {},
    "version": 1
  }
}