{
  "contractName": "LogisticsDetails",
  "abi": [
    {
      "anonymous": false,
      "inputs": [
        {
          "indexed": false,
          "internalType": "uint256",
          "name": "LogId",
          "type": "uint256"
        }
      ],
      "name": "LogDataAdded",
      "type": "event"
    },
    {
      "inputs": [
        {
          "internalType": "uint256",
          "name": "",
          "type": "uint256"
        }
      ],
      "name": "LogIds",
      "outputs": [
        {
          "internalType": "uint256",
          "name": "",
          "type": "uint256"
        }
      ],
      "stateMutability": "view",
      "type": "function"
    },
    {
      "inputs": [
        {
          "internalType": "uint256",
          "name": "_id",
          "type": "uint256"
        },
        {
          "internalType": "string",
          "name": "_vehicleType",
          "type": "string"
        },
        {
          "internalType": "string",
          "name": "_vehicleNo",
          "type": "string"
        },
        {
          "internalType": "string",
          "name": "_driverName",
          "type": "string"
        },
        {
          "internalType": "uint256",
          "name": "_driverContact",
          "type": "uint256"
        },
        {
          "internalType": "uint256",
          "name": "_dateDispatched",
          "type": "uint256"
        }
      ],
      "name": "addLogistic",
      "outputs": [],
      "stateMutability": "nonpayable",
      "type": "function"
    }
  ],
  "bytecode": "0x608060405234801561001057600080fd5b506104ac806100206000396000f3fe608060405234801561001057600080fd5b50600436106100365760003560e01c8063197e1b2d1461003b578063b584fef21461007d575b600080fd5b6100676004803603602081101561005157600080fd5b8101908080359060200190929190505050610284565b6040518082815260200191505060405180910390f35b610282600480360360c081101561009357600080fd5b8101908080359060200190929190803590602001906401000000008111156100ba57600080fd5b8201836020820111156100cc57600080fd5b803590602001918460018302840111640100000000831117156100ee57600080fd5b91908080601f016020809104026020016040519081016040528093929190818152602001838380828437600081840152601f19601f8201169050808301925050505050505091929192908035906020019064010000000081111561015157600080fd5b82018360208201111561016357600080fd5b8035906020019184600183028401116401000000008311171561018557600080fd5b91908080601f016020809104026020016040519081016040528093929190818152602001838380828437600081840152601f19601f820116905080830192505050505050509192919290803590602001906401000000008111156101e857600080fd5b8201836020820111156101fa57600080fd5b8035906020019184600183028401116401000000008311171561021c57600080fd5b91908080601f016020809104026020016040519081016040528093929190818152602001838380828437600081840152601f19601f82011690508083019250505050505050919291929080359060200190929190803590602001909291905050506102a5565b005b6001818154811061029157fe5b906000526020600020016000915090505481565b600186908060018154018082558091505060019003906000526020600020016000909190919091505585600080888152602001908152602001600020600001819055508460008088815260200190815260200160002060010190805190602001906103119291906103d9565b5083600080888152602001908152602001600020600201908051906020019061033b9291906103d9565b508260008088815260200190815260200160002060030190805190602001906103659291906103d9565b50816000808881526020019081526020016000206004018190555080600080888152602001908152602001600020600501819055507fda39151f98ac043ba47fb41b6784335b6ee659eac34af2aa955d8417037e0732866040518082815260200191505060405180910390a1505050505050565b828054600181600116156101000203166002900490600052602060002090601f016020900481019282601f1061041a57805160ff1916838001178555610448565b82800160010185558215610448579182015b8281111561044757825182559160200191906001019061042c565b5b5090506104559190610459565b5090565b5b8082111561047257600081600090555060010161045a565b509056fea264697066735822122044754392edfda95afeb7726f01b244bfa0c5a82daa7071ef9d6f7fe4450bb80f64736f6c63430007000033",
  "immutableReferences": {},
  "source": "pragma solidity ^0.7.0;\r\n\r\nstruct Logistics{\r\n    uint id;\r\n    string vehicleType;\r\n    string vehicleNo;\r\n    string driverName;\r\n    uint driverContact;\r\n    uint dateDispatched;\r\n}\r\n\r\ncontract LogisticsDetails{\r\n    event LogDataAdded(uint LogId);\r\n\r\n    mapping (uint => Logistics) logs;\r\n    uint[] public LogIds;\r\n\r\n    function addLogistic(uint _id, string memory _vehicleType, string memory _vehicleNo, string memory _driverName, uint _driverContact, uint _dateDispatched)\r\n    public {\r\n        LogIds.push(_id);\r\n        logs[_id].id = _id;\r\n        logs[_id].vehicleType = _vehicleType;\r\n        logs[_id].vehicleNo = _vehicleNo;\r\n        logs[_id].driverName = _driverName;\r\n        logs[_id].driverContact = _driverContact;\r\n        logs[_id].dateDispatched = _dateDispatched;\r\n\r\n        emit LogDataAdded(_id);\r\n    }\r\n}",
  "sourcePath": "C:/Users/RIYA/Downloads/FYP2021/Agrochain/contracts/Logistics.sol",
  "compiler": {
    "name": "solc",
    "version": "0.7.0+commit.9e61f92b.Emscripten.clang"
  },
  "schemaVersion": "3.3.1",
  "updatedAt": "2021-04-08T10:48:49.268Z",
  "devdoc": {
    "kind": "dev",
    "methods": {},
    "version": 1
  },
  "userdoc": {
    "kind": "user",
    "methods": {},
    "version": 1
  }
}