{
  "contractName": "TransactionDetails",
  "abi": [
    {
      "anonymous": false,
      "inputs": [
        {
          "indexed": false,
          "internalType": "string",
          "name": "sellerName",
          "type": "string"
        },
        {
          "indexed": false,
          "internalType": "string",
          "name": "buyerName",
          "type": "string"
        }
      ],
      "name": "FarmerToHubTransactionAdded",
      "type": "event"
    },
    {
      "anonymous": false,
      "inputs": [
        {
          "indexed": false,
          "internalType": "string",
          "name": "sellerName",
          "type": "string"
        },
        {
          "indexed": false,
          "internalType": "string",
          "name": "buyerName",
          "type": "string"
        }
      ],
      "name": "HubToRetailerTransactionAdded",
      "type": "event"
    },
    {
      "inputs": [
        {
          "internalType": "uint256",
          "name": "_tid",
          "type": "uint256"
        },
        {
          "internalType": "string",
          "name": "_sellerName",
          "type": "string"
        },
        {
          "internalType": "string",
          "name": "_buyerName",
          "type": "string"
        },
        {
          "internalType": "string",
          "name": "_crop",
          "type": "string"
        },
        {
          "internalType": "uint256",
          "name": "_price",
          "type": "uint256"
        },
        {
          "internalType": "uint256",
          "name": "_quantity",
          "type": "uint256"
        },
        {
          "internalType": "uint256",
          "name": "_logisticId",
          "type": "uint256"
        }
      ],
      "name": "f2hTransaction",
      "outputs": [],
      "stateMutability": "nonpayable",
      "type": "function"
    },
    {
      "inputs": [
        {
          "internalType": "uint256",
          "name": "_tid",
          "type": "uint256"
        },
        {
          "internalType": "string",
          "name": "_sellerName",
          "type": "string"
        },
        {
          "internalType": "string",
          "name": "_buyerName",
          "type": "string"
        },
        {
          "internalType": "string",
          "name": "_crop",
          "type": "string"
        },
        {
          "internalType": "string",
          "name": "_grade",
          "type": "string"
        },
        {
          "internalType": "uint256",
          "name": "_price",
          "type": "uint256"
        },
        {
          "internalType": "uint256",
          "name": "_quantity",
          "type": "uint256"
        },
        {
          "internalType": "string",
          "name": "_packageId",
          "type": "string"
        },
        {
          "internalType": "uint256",
          "name": "_logisticId",
          "type": "uint256"
        },
        {
          "internalType": "bytes",
          "name": "_prevHash",
          "type": "bytes"
        }
      ],
      "name": "h2rTransaction",
      "outputs": [],
      "stateMutability": "nonpayable",
      "type": "function"
    },
    {
      "inputs": [],
      "name": "getTransactions",
      "outputs": [
        {
          "internalType": "uint256[]",
          "name": "",
          "type": "uint256[]"
        }
      ],
      "stateMutability": "view",
      "type": "function"
    },
    {
      "inputs": [
        {
          "internalType": "uint256",
          "name": "tid",
          "type": "uint256"
        }
      ],
      "name": "getTxnCropDetails",
      "outputs": [
        {
          "internalType": "string",
          "name": "",
          "type": "string"
        },
        {
          "internalType": "string",
          "name": "",
          "type": "string"
        },
        {
          "internalType": "uint256",
          "name": "",
          "type": "uint256"
        },
        {
          "internalType": "uint256",
          "name": "",
          "type": "uint256"
        },
        {
          "internalType": "string",
          "name": "",
          "type": "string"
        },
        {
          "internalType": "uint256",
          "name": "",
          "type": "uint256"
        }
      ],
      "stateMutability": "view",
      "type": "function"
    },
    {
      "inputs": [
        {
          "internalType": "uint256",
          "name": "tid",
          "type": "uint256"
        }
      ],
      "name": "getTxnEntityDetails",
      "outputs": [
        {
          "internalType": "uint256",
          "name": "",
          "type": "uint256"
        },
        {
          "internalType": "string",
          "name": "",
          "type": "string"
        },
        {
          "internalType": "uint256",
          "name": "",
          "type": "uint256"
        },
        {
          "internalType": "string",
          "name": "",
          "type": "string"
        }
      ],
      "stateMutability": "view",
      "type": "function"
    },
    {
      "inputs": [
        {
          "internalType": "uint256",
          "name": "tid",
          "type": "uint256"
        }
      ],
      "name": "getPrevHash",
      "outputs": [
        {
          "internalType": "bytes",
          "name": "",
          "type": "bytes"
        }
      ],
      "stateMutability": "view",
      "type": "function"
    },
    {
      "inputs": [
        {
          "internalType": "uint256",
          "name": "tid",
          "type": "uint256"
        }
      ],
      "name": "getNextHash",
      "outputs": [
        {
          "internalType": "bytes",
          "name": "",
          "type": "bytes"
        }
      ],
      "stateMutability": "view",
      "type": "function"
    },
    {
      "inputs": [
        {
          "internalType": "uint256",
          "name": "tid",
          "type": "uint256"
        },
        {
          "internalType": "bytes",
          "name": "_nextHash",
          "type": "bytes"
        }
      ],
      "name": "setNextHash",
      "outputs": [],
      "stateMutability": "nonpayable",
      "type": "function"
    }
  ],
  "bytecode": "0x608060405234801561001057600080fd5b506117db806100206000396000f3fe608060405234801561001057600080fd5b50600436106100885760003560e01c80637431cd4d1161005b5780637431cd4d146107de57806383920e9014610885578063bb99e1c7146108e4578063cde4b21714610af557610088565b806302b616231461008d578063373c320514610152578063491b91fb146102e657806369fd9532146106bd575b600080fd5b610150600480360360408110156100a357600080fd5b8101908080359060200190929190803590602001906401000000008111156100ca57600080fd5b8201836020820111156100dc57600080fd5b803590602001918460018302840111640100000000831117156100fe57600080fd5b91908080601f016020809104026020016040519081016040528093929190818152602001838380828437600081840152601f19601f820116905080830192505050505050509192919290505050610b9c565b005b61017e6004803603602081101561016857600080fd5b8101908080359060200190929190505050610bca565b6040518080602001806020018781526020018681526020018060200185815260200184810384528a818151815260200191508051906020019080838360005b838110156101d85780820151818401526020810190506101bd565b50505050905090810190601f1680156102055780820380516001836020036101000a031916815260200191505b50848103835289818151815260200191508051906020019080838360005b8381101561023e578082015181840152602081019050610223565b50505050905090810190601f16801561026b5780820380516001836020036101000a031916815260200191505b50848103825286818151815260200191508051906020019080838360005b838110156102a4578082015181840152602081019050610289565b50505050905090810190601f1680156102d15780820380516001836020036101000a031916815260200191505b50995050505050505050505060405180910390f35b6106bb60048036036101408110156102fd57600080fd5b81019080803590602001909291908035906020019064010000000081111561032457600080fd5b82018360208201111561033657600080fd5b8035906020019184600183028401116401000000008311171561035857600080fd5b91908080601f016020809104026020016040519081016040528093929190818152602001838380828437600081840152601f19601f820116905080830192505050505050509192919290803590602001906401000000008111156103bb57600080fd5b8201836020820111156103cd57600080fd5b803590602001918460018302840111640100000000831117156103ef57600080fd5b91908080601f016020809104026020016040519081016040528093929190818152602001838380828437600081840152601f19601f8201169050808301925050505050505091929192908035906020019064010000000081111561045257600080fd5b82018360208201111561046457600080fd5b8035906020019184600183028401116401000000008311171561048657600080fd5b91908080601f016020809104026020016040519081016040528093929190818152602001838380828437600081840152601f19601f820116905080830192505050505050509192919290803590602001906401000000008111156104e957600080fd5b8201836020820111156104fb57600080fd5b8035906020019184600183028401116401000000008311171561051d57600080fd5b91908080601f016020809104026020016040519081016040528093929190818152602001838380828437600081840152601f19601f82011690508083019250505050505050919291929080359060200190929190803590602001909291908035906020019064010000000081111561059457600080fd5b8201836020820111156105a657600080fd5b803590602001918460018302840111640100000000831117156105c857600080fd5b91908080601f016020809104026020016040519081016040528093929190818152602001838380828437600081840152601f19601f820116905080830192505050505050509192919290803590602001909291908035906020019064010000000081111561063557600080fd5b82018360208201111561064757600080fd5b8035906020019184600183028401116401000000008311171561066957600080fd5b91908080601f016020809104026020016040519081016040528093929190818152602001838380828437600081840152601f19601f820116905080830192505050505050509192919290505050610e3e565b005b6106e9600480360360208110156106d357600080fd5b810190808035906020019092919050505061100d565b604051808581526020018060200184815260200180602001838103835286818151815260200191508051906020019080838360005b8381101561073957808201518184015260208101905061071e565b50505050905090810190601f1680156107665780820380516001836020036101000a031916815260200191505b50838103825284818151815260200191508051906020019080838360005b8381101561079f578082015181840152602081019050610784565b50505050905090810190601f1680156107cc5780820380516001836020036101000a031916815260200191505b50965050505050505060405180910390f35b61080a600480360360208110156107f457600080fd5b81019080803590602001909291905050506111b2565b6040518080602001828103825283818151815260200191508051906020019080838360005b8381101561084a57808201518184015260208101905061082f565b50505050905090810190601f1680156108775780820380516001836020036101000a031916815260200191505b509250505060405180910390f35b61088d611269565b6040518080602001828103825283818151815260200191508051906020019060200280838360005b838110156108d05780820151818401526020810190506108b5565b505050509050019250505060405180910390f35b610af3600480360360e08110156108fa57600080fd5b81019080803590602001909291908035906020019064010000000081111561092157600080fd5b82018360208201111561093357600080fd5b8035906020019184600183028401116401000000008311171561095557600080fd5b91908080601f016020809104026020016040519081016040528093929190818152602001838380828437600081840152601f19601f820116905080830192505050505050509192919290803590602001906401000000008111156109b857600080fd5b8201836020820111156109ca57600080fd5b803590602001918460018302840111640100000000831117156109ec57600080fd5b91908080601f016020809104026020016040519081016040528093929190818152602001838380828437600081840152601f19601f82011690508083019250505050505050919291929080359060200190640100000000811115610a4f57600080fd5b820183602082011115610a6157600080fd5b80359060200191846001830284011164010000000083111715610a8357600080fd5b91908080601f016020809104026020016040519081016040528093929190818152602001838380828437600081840152601f19601f8201169050808301925050505050505091929192908035906020019092919080359060200190929190803590602001909291905050506112c1565b005b610b2160048036036020811015610b0b57600080fd5b8101908080359060200190929190505050611551565b6040518080602001828103825283818151815260200191508051906020019080838360005b83811015610b61578082015181840152602081019050610b46565b50505050905090810190601f168015610b8e5780820380516001836020036101000a031916815260200191505b509250505060405180910390f35b80600080848152602001908152602001600020600c019080519060200190610bc5929190611608565b505050565b606080600080606060008060008881526020019081526020016000206005016000808981526020019081526020016000206006016000808a8152602001908152602001600020600701546000808b8152602001908152602001600020600801546000808c81526020019081526020016000206009016000808d8152602001908152602001600020600a0154858054600181600116156101000203166002900480601f016020809104026020016040519081016040528092919081815260200182805460018160011615610100020316600290048015610cea5780601f10610cbf57610100808354040283529160200191610cea565b820191906000526020600020905b815481529060010190602001808311610ccd57829003601f168201915b50505050509550848054600181600116156101000203166002900480601f016020809104026020016040519081016040528092919081815260200182805460018160011615610100020316600290048015610d865780601f10610d5b57610100808354040283529160200191610d86565b820191906000526020600020905b815481529060010190602001808311610d6957829003601f168201915b50505050509450818054600181600116156101000203166002900480601f016020809104026020016040519081016040528092919081815260200182805460018160011615610100020316600290048015610e225780601f10610df757610100808354040283529160200191610e22565b820191906000526020600020905b815481529060010190602001808311610e0557829003601f168201915b5050505050915095509550955095509550955091939550919395565b60018a9080600181540180825580915050600190039060005260206000200160009091909190915055896000808c81526020019081526020016000206000018190555060016000808c815260200190815260200160002060010181905550886000808c81526020019081526020016000206002019080519060200190610ec5929190611688565b5060026000808c815260200190815260200160002060030181905550876000808c81526020019081526020016000206004019080519060200190610f0a929190611688565b50866000808c81526020019081526020016000206005019080519060200190610f34929190611688565b50856000808c81526020019081526020016000206006019080519060200190610f5e929190611688565b50846000808c815260200190815260200160002060070181905550836000808c815260200190815260200160002060080181905550826000808c81526020019081526020016000206009019080519060200190610fbc929190611688565b50816000808c8152602001908152602001600020600a0181905550806000808c8152602001908152602001600020600b019080519060200190611000929190611608565b5050505050505050505050565b60006060600060606000808681526020019081526020016000206001015460008087815260200190815260200160002060020160008088815260200190815260200160002060030154600080898152602001908152602001600020600401828054600181600116156101000203166002900480601f0160208091040260200160405190810160405280929190818152602001828054600181600116156101000203166002900480156111005780601f106110d557610100808354040283529160200191611100565b820191906000526020600020905b8154815290600101906020018083116110e357829003601f168201915b50505050509250808054600181600116156101000203166002900480601f01602080910402602001604051908101604052809291908181526020018280546001816001161561010002031660029004801561119c5780601f106111715761010080835404028352916020019161119c565b820191906000526020600020905b81548152906001019060200180831161117f57829003601f168201915b5050505050905093509350935093509193509193565b6060600080838152602001908152602001600020600c018054600181600116156101000203166002900480601f01602080910402602001604051908101604052809291908181526020018280546001816001161561010002031660029004801561125d5780601f106112325761010080835404028352916020019161125d565b820191906000526020600020905b81548152906001019060200180831161124057829003601f168201915b50505050509050919050565b606060018054806020026020016040519081016040528092919081815260200182805480156112b757602002820191906000526020600020905b8154815260200190600101908083116112a3575b5050505050905090565b60018790806001815401808255809150506001900390600052602060002001600090919091909150558660008089815260200190815260200160002060000181905550600080600089815260200190815260200160002060010181905550856000808981526020019081526020016000206002019080519060200190611348929190611688565b5060016000808981526020019081526020016000206003018190555084600080898152602001908152602001600020600401908051906020019061138d929190611688565b508360008089815260200190815260200160002060050190805190602001906113b7929190611688565b508260008089815260200190815260200160002060070181905550816000808981526020019081526020016000206008018190555080600080898152602001908152602001600020600a018190555060405180602001604052806000815250600080898152602001908152602001600020600b01908051906020019061143e929190611708565b507f44d192c32df451e64f2436c146b306c508ae85b988190afa1ff5f6c09f3096428686604051808060200180602001838103835285818151815260200191508051906020019080838360005b838110156114a657808201518184015260208101905061148b565b50505050905090810190601f1680156114d35780820380516001836020036101000a031916815260200191505b50838103825284818151815260200191508051906020019080838360005b8381101561150c5780820151818401526020810190506114f1565b50505050905090810190601f1680156115395780820380516001836020036101000a031916815260200191505b5094505050505060405180910390a150505050505050565b6060600080838152602001908152602001600020600b018054600181600116156101000203166002900480601f0160208091040260200160405190810160405280929190818152602001828054600181600116156101000203166002900480156115fc5780601f106115d1576101008083540402835291602001916115fc565b820191906000526020600020905b8154815290600101906020018083116115df57829003601f168201915b50505050509050919050565b828054600181600116156101000203166002900490600052602060002090601f016020900481019282601f1061164957805160ff1916838001178555611677565b82800160010185558215611677579182015b8281111561167657825182559160200191906001019061165b565b5b5090506116849190611788565b5090565b828054600181600116156101000203166002900490600052602060002090601f016020900481019282601f106116c957805160ff19168380011785556116f7565b828001600101855582156116f7579182015b828111156116f65782518255916020019190600101906116db565b5b5090506117049190611788565b5090565b828054600181600116156101000203166002900490600052602060002090601f016020900481019282601f1061174957805160ff1916838001178555611777565b82800160010185558215611777579182015b8281111561177657825182559160200191906001019061175b565b5b5090506117849190611788565b5090565b5b808211156117a1576000816000905550600101611789565b509056fea2646970667358221220b29308249c7da94ec577353dc1d7715033f43a2be93e949ef612c6e088c295d164736f6c63430007000033",
  "immutableReferences": {},
  "source": "// SPDX-License-Identifier: MIT\r\npragma solidity >=0.7.0;\r\n\r\nstruct Transaction{\r\n    uint tid;\r\n    uint sellerType;\r\n    string sellerName;\r\n    uint buyerType;\r\n    string buyerName;\r\n    string crop;\r\n    string grade;\r\n    uint price;\r\n    uint quantity;\r\n    string packageId;\r\n    uint logisticId;\r\n    bytes prevHash;\r\n    bytes nextHash;\r\n}\r\n\r\ncontract TransactionDetails{\r\n    event FarmerToHubTransactionAdded(string sellerName, string buyerName);\r\n    event HubToRetailerTransactionAdded(string sellerName, string buyerName);\r\n\r\n    mapping (uint => Transaction) txns;\r\n    uint[] tids;\r\n\r\n    function f2hTransaction(uint _tid, string memory _sellerName, string memory _buyerName, string memory _crop, uint _price, uint _quantity, uint _logisticId)\r\n    public {\r\n        tids.push(_tid);\r\n\r\n        txns[_tid].tid = _tid;\r\n        txns[_tid].sellerType = 0;\r\n        txns[_tid].sellerName = _sellerName;\r\n        txns[_tid].buyerType = 1;\r\n        txns[_tid].buyerName = _buyerName;\r\n        txns[_tid].crop = _crop;\r\n        txns[_tid].price = _price;\r\n        txns[_tid].quantity = _quantity;\r\n        txns[_tid].logisticId = _logisticId;\r\n        txns[_tid].prevHash = \"\";\r\n\r\n        emit FarmerToHubTransactionAdded(_sellerName, _buyerName);\r\n    }\r\n\r\n    function h2rTransaction(uint _tid, string memory _sellerName, string memory _buyerName, string memory _crop, string memory _grade, uint _price, uint _quantity, string memory _packageId, uint _logisticId, bytes memory _prevHash)\r\n    public {\r\n        tids.push(_tid);\r\n\r\n        txns[_tid].tid = _tid;\r\n        txns[_tid].sellerType = 1;\r\n        txns[_tid].sellerName = _sellerName;\r\n        txns[_tid].buyerType = 2;\r\n        txns[_tid].buyerName = _buyerName;\r\n        txns[_tid].crop = _crop;\r\n        txns[_tid].grade = _grade;\r\n        txns[_tid].price = _price;\r\n        txns[_tid].quantity = _quantity;\r\n        txns[_tid].packageId = _packageId;\r\n        txns[_tid].logisticId = _logisticId;\r\n        txns[_tid].prevHash = _prevHash;\r\n    }\r\n    \r\n    function getTransactions() view public\r\n        returns(uint[] memory){\r\n            return tids;\r\n        }\r\n\r\n    function getTxnCropDetails(uint tid) view public\r\n    returns(string memory, string memory, uint, uint, string memory, uint) {\r\n        return(txns[tid].crop, txns[tid].grade, txns[tid].price, txns[tid].quantity, txns[tid].packageId, txns[tid].logisticId);\r\n    }\r\n\r\n    function getTxnEntityDetails(uint tid) view public\r\n    returns(uint, string memory, uint, string memory){\r\n        return(txns[tid].sellerType, txns[tid].sellerName, txns[tid].buyerType, txns[tid].buyerName);\r\n    }\r\n\r\n    function getPrevHash(uint tid) view public\r\n    returns(bytes memory) {\r\n        return(txns[tid].prevHash);\r\n    }\r\n\r\n    function getNextHash(uint tid) view public\r\n    returns(bytes memory) {\r\n        return(txns[tid].nextHash);\r\n    }\r\n\r\n    function setNextHash(uint tid, bytes memory _nextHash)\r\n    public {\r\n        txns[tid].nextHash = _nextHash;\r\n    }\r\n}",
  "sourcePath": "C:/Users/mehta/Desktop/FYP/FYP2021/Agrochain/contracts/Transaction.sol",
  "compiler": {
    "name": "solc",
    "version": "0.7.0+commit.9e61f92b.Emscripten.clang"
  },
  "schemaVersion": "3.3.3",
  "updatedAt": "2021-04-10T06:06:00.849Z",
  "devdoc": {
    "kind": "dev",
    "methods": {},
    "version": 1
  },
  "userdoc": {
    "kind": "user",
    "methods": {},
    "version": 1
  }
}