{
  "contractName": "TransactionDetails",
  "abi": [
    {
      "anonymous": false,
      "inputs": [
        {
          "indexed": false,
          "internalType": "string",
          "name": "sellerName",
          "type": "string"
        },
        {
          "indexed": false,
          "internalType": "string",
          "name": "buyerName",
          "type": "string"
        }
      ],
      "name": "FarmerToHubTransactionAdded",
      "type": "event"
    },
    {
      "anonymous": false,
      "inputs": [
        {
          "indexed": false,
          "internalType": "string",
          "name": "sellerName",
          "type": "string"
        },
        {
          "indexed": false,
          "internalType": "string",
          "name": "buyerName",
          "type": "string"
        }
      ],
      "name": "HubToRetailerTransactionAdded",
      "type": "event"
    },
    {
      "anonymous": false,
      "inputs": [
        {
          "indexed": false,
          "internalType": "string",
          "name": "sellerName",
          "type": "string"
        }
      ],
      "name": "RetailerToCustomerTransactionAdded",
      "type": "event"
    },
    {
      "inputs": [
        {
          "internalType": "address",
          "name": "seller",
          "type": "address"
        },
        {
          "internalType": "address",
          "name": "buyer",
          "type": "address"
        },
        {
          "internalType": "string",
          "name": "_packageId",
          "type": "string"
        },
        {
          "internalType": "string",
          "name": "_sellerName",
          "type": "string"
        },
        {
          "internalType": "string",
          "name": "_buyerName",
          "type": "string"
        },
        {
          "internalType": "uint256",
          "name": "_cropId",
          "type": "uint256"
        },
        {
          "internalType": "string",
          "name": "_cropName",
          "type": "string"
        },
        {
          "internalType": "uint256",
          "name": "_price",
          "type": "uint256"
        },
        {
          "internalType": "uint256",
          "name": "_quantity",
          "type": "uint256"
        }
      ],
      "name": "f2hTransaction",
      "outputs": [],
      "stateMutability": "nonpayable",
      "type": "function"
    },
    {
      "inputs": [
        {
          "internalType": "address",
          "name": "seller",
          "type": "address"
        },
        {
          "internalType": "address",
          "name": "buyer",
          "type": "address"
        },
        {
          "internalType": "string",
          "name": "_packageId",
          "type": "string"
        },
        {
          "internalType": "string",
          "name": "_sellerName",
          "type": "string"
        },
        {
          "internalType": "string",
          "name": "_buyerName",
          "type": "string"
        },
        {
          "internalType": "uint256",
          "name": "_cropId",
          "type": "uint256"
        },
        {
          "internalType": "string",
          "name": "_cropName",
          "type": "string"
        },
        {
          "internalType": "string",
          "name": "_grade",
          "type": "string"
        },
        {
          "internalType": "uint256",
          "name": "_price",
          "type": "uint256"
        },
        {
          "internalType": "uint256",
          "name": "_quantity",
          "type": "uint256"
        },
        {
          "internalType": "string",
          "name": "_prevId",
          "type": "string"
        }
      ],
      "name": "h2rTransaction",
      "outputs": [],
      "stateMutability": "nonpayable",
      "type": "function"
    },
    {
      "inputs": [
        {
          "internalType": "address",
          "name": "seller",
          "type": "address"
        },
        {
          "internalType": "string",
          "name": "_packageId",
          "type": "string"
        },
        {
          "internalType": "string",
          "name": "_sellerName",
          "type": "string"
        },
        {
          "internalType": "uint256",
          "name": "_cropId",
          "type": "uint256"
        },
        {
          "internalType": "string",
          "name": "_cropName",
          "type": "string"
        },
        {
          "internalType": "uint256",
          "name": "_price",
          "type": "uint256"
        },
        {
          "internalType": "uint256",
          "name": "_quantity",
          "type": "uint256"
        },
        {
          "internalType": "string",
          "name": "_prevId",
          "type": "string"
        }
      ],
      "name": "r2cTransaction",
      "outputs": [],
      "stateMutability": "nonpayable",
      "type": "function"
    },
    {
      "inputs": [
        {
          "internalType": "address",
          "name": "_address",
          "type": "address"
        }
      ],
      "name": "getTransactions",
      "outputs": [
        {
          "internalType": "string[]",
          "name": "",
          "type": "string[]"
        }
      ],
      "stateMutability": "view",
      "type": "function",
      "constant": true
    },
    {
      "inputs": [
        {
          "internalType": "string",
          "name": "tid",
          "type": "string"
        }
      ],
      "name": "getTxnCropDetails",
      "outputs": [
        {
          "internalType": "uint256",
          "name": "",
          "type": "uint256"
        },
        {
          "internalType": "string",
          "name": "",
          "type": "string"
        },
        {
          "internalType": "string",
          "name": "",
          "type": "string"
        },
        {
          "internalType": "uint256",
          "name": "",
          "type": "uint256"
        },
        {
          "internalType": "uint256",
          "name": "",
          "type": "uint256"
        },
        {
          "internalType": "uint256",
          "name": "",
          "type": "uint256"
        }
      ],
      "stateMutability": "view",
      "type": "function",
      "constant": true
    },
    {
      "inputs": [
        {
          "internalType": "string",
          "name": "tid",
          "type": "string"
        }
      ],
      "name": "getTxnEntityDetails",
      "outputs": [
        {
          "internalType": "uint256",
          "name": "",
          "type": "uint256"
        },
        {
          "internalType": "string",
          "name": "",
          "type": "string"
        },
        {
          "internalType": "uint256",
          "name": "",
          "type": "uint256"
        },
        {
          "internalType": "string",
          "name": "",
          "type": "string"
        }
      ],
      "stateMutability": "view",
      "type": "function",
      "constant": true
    },
    {
      "inputs": [
        {
          "internalType": "string",
          "name": "tid",
          "type": "string"
        }
      ],
      "name": "getPrevId",
      "outputs": [
        {
          "internalType": "string",
          "name": "",
          "type": "string"
        }
      ],
      "stateMutability": "view",
      "type": "function",
      "constant": true
    },
    {
      "inputs": [
        {
          "internalType": "string",
          "name": "tid",
          "type": "string"
        }
      ],
      "name": "getNextId",
      "outputs": [
        {
          "internalType": "string",
          "name": "",
          "type": "string"
        }
      ],
      "stateMutability": "view",
      "type": "function",
      "constant": true
    },
    {
      "inputs": [
        {
          "internalType": "string",
          "name": "tid",
          "type": "string"
        }
      ],
      "name": "getActiveStatus",
      "outputs": [
        {
          "internalType": "bool",
          "name": "",
          "type": "bool"
        }
      ],
      "stateMutability": "view",
      "type": "function",
      "constant": true
    },
    {
      "inputs": [
        {
          "internalType": "string",
          "name": "tid",
          "type": "string"
        },
        {
          "internalType": "string",
          "name": "_nextHash",
          "type": "string"
        }
      ],
      "name": "setNextHash",
      "outputs": [],
      "stateMutability": "nonpayable",
      "type": "function"
    }
  ],
  "bytecode": "0x608060405234801561001057600080fd5b50611dd3806100206000396000f3fe608060405234801561001057600080fd5b506004361061009e5760003560e01c8063706e462611610066578063706e4626146101825780637dda3950146101b7578063a0bb2fbd146101e7578063b8f7ec7e14610203578063f2c6d1cd1461021f5761009e565b80630f8cda20146100a357806325491f2f146100d35780632b677531146101035780633aaab8d71461011f578063513c8f641461014f575b600080fd5b6100bd60048036038101906100b891906114c3565b61023b565b6040516100ca9190611ab2565b60405180910390f35b6100ed60048036038101906100e891906118a4565b610363565b6040516100fa9190611ad4565b60405180910390f35b61011d600480360381019061011891906118e5565b61039a565b005b610139600480360381019061013491906118a4565b6103d4565b6040516101469190611aef565b60405180910390f35b610169600480360381019061016491906118a4565b610497565b6040516101799493929190611bb7565b60405180910390f35b61019c600480360381019061019791906118a4565b61066c565b6040516101ae96959493929190611b48565b60405180910390f35b6101d160048036038101906101cc91906118a4565b61088c565b6040516101de9190611aef565b60405180910390f35b61020160048036038101906101fc919061166c565b61094f565b005b61021d600480360381019061021891906114ec565b610c6f565b005b61023960048036038101906102349190611792565b610fe6565b005b6060600160008373ffffffffffffffffffffffffffffffffffffffff1673ffffffffffffffffffffffffffffffffffffffff168152602001908152602001600020805480602002602001604051908101604052809291908181526020016000905b82821015610358578382906000526020600020018054600181600116156101000203166002900480601f0160208091040260200160405190810160405280929190818152602001828054600181600116156101000203166002900480156103445780601f1061031957610100808354040283529160200191610344565b820191906000526020600020905b81548152906001019060200180831161032757829003601f168201915b50505050508152602001906001019061029c565b505050509050919050565b600080826040516103749190611a9b565b9081526020016040518091039020600d0160009054906101000a900460ff169050919050565b806000836040516103ab9190611a9b565b9081526020016040518091039020600c0190805190602001906103cf929190611337565b505050565b60606000826040516103e69190611a9b565b9081526020016040518091039020600b018054600181600116156101000203166002900480601f01602080910402602001604051908101604052809291908181526020018280546001816001161561010002031660029004801561048b5780601f106104605761010080835404028352916020019161048b565b820191906000526020600020905b81548152906001019060200180831161046e57829003601f168201915b50505050509050919050565b60006060600060606000856040516104af9190611a9b565b9081526020016040518091039020600101546000866040516104d19190611a9b565b90815260200160405180910390206002016000876040516104f29190611a9b565b9081526020016040518091039020600301546000886040516105149190611a9b565b9081526020016040518091039020600401828054600181600116156101000203166002900480601f0160208091040260200160405190810160405280929190818152602001828054600181600116156101000203166002900480156105ba5780601f1061058f576101008083540402835291602001916105ba565b820191906000526020600020905b81548152906001019060200180831161059d57829003601f168201915b50505050509250808054600181600116156101000203166002900480601f0160208091040260200160405190810160405280929190818152602001828054600181600116156101000203166002900480156106565780601f1061062b57610100808354040283529160200191610656565b820191906000526020600020905b81548152906001019060200180831161063957829003601f168201915b5050505050905093509350935093509193509193565b6000606080600080600080876040516106859190611a9b565b9081526020016040518091039020600501546000886040516106a79190611a9b565b90815260200160405180910390206006016000896040516106c89190611a9b565b908152602001604051809103902060070160008a6040516106e99190611a9b565b90815260200160405180910390206008015460008b60405161070b9190611a9b565b90815260200160405180910390206009015460008c60405161072d9190611a9b565b9081526020016040518091039020600a0154848054600181600116156101000203166002900480601f0160208091040260200160405190810160405280929190818152602001828054600181600116156101000203166002900480156107d45780601f106107a9576101008083540402835291602001916107d4565b820191906000526020600020905b8154815290600101906020018083116107b757829003601f168201915b50505050509450838054600181600116156101000203166002900480601f0160208091040260200160405190810160405280929190818152602001828054600181600116156101000203166002900480156108705780601f1061084557610100808354040283529160200191610870565b820191906000526020600020905b81548152906001019060200180831161085357829003601f168201915b5050505050935095509550955095509550955091939550919395565b606060008260405161089e9190611a9b565b9081526020016040518091039020600c018054600181600116156101000203166002900480601f0160208091040260200160405190810160405280929190818152602001828054600181600116156101000203166002900480156109435780601f1061091857610100808354040283529160200191610943565b820191906000526020600020905b81548152906001019060200180831161092657829003601f168201915b50505050509050919050565b6109576113b7565b604051806101c001604052808981526020016000815260200188815260200160018152602001878152602001868152602001604051806020016040528060008152508152602001858152602001848152602001838152602001838152602001604051806020016040528060008152508152602001604051806020016040528060008152508152602001600115158152509050806000896040516109fa9190611a9b565b90815260200160405180910390206000820151816000019080519060200190610a24929190611337565b50602082015181600101556040820151816002019080519060200190610a4b929190611337565b50606082015181600301556080820151816004019080519060200190610a72929190611337565b5060a0820151816005015560c0820151816006019080519060200190610a99929190611337565b5060e0820151816007019080519060200190610ab6929190611337565b506101008201518160080155610120820151816009015561014082015181600a015561016082015181600b019080519060200190610af5929190611337565b5061018082015181600c019080519060200190610b13929190611337565b506101a082015181600d0160006101000a81548160ff021916908315150217905550905050600160008b73ffffffffffffffffffffffffffffffffffffffff1673ffffffffffffffffffffffffffffffffffffffff16815260200190815260200160002088908060018154018082558091505060019003906000526020600020016000909190919091509080519060200190610bb0929190611337565b50600160008a73ffffffffffffffffffffffffffffffffffffffff1673ffffffffffffffffffffffffffffffffffffffff16815260200190815260200160002088908060018154018082558091505060019003906000526020600020016000909190919091509080519060200190610c29929190611337565b507f44d192c32df451e64f2436c146b306c508ae85b988190afa1ff5f6c09f3096428787604051610c5b929190611b11565b60405180910390a150505050505050505050565b610c776113b7565b604051806101c001604052808b8152602001600181526020018a81526020016002815260200189815260200188815260200187815260200186815260200185815260200184815260200184815260200183815260200160405180602001604052806000815250815260200160011515815250905082600083604051610cfc9190611a9b565b9081526020016040518091039020600a015403600083604051610d1f9190611a9b565b9081526020016040518091039020600a018190555060008083604051610d459190611a9b565b9081526020016040518091039020600a01541415610d975760008083604051610d6e9190611a9b565b9081526020016040518091039020600d0160006101000a81548160ff0219169083151502179055505b8060008b604051610da89190611a9b565b90815260200160405180910390206000820151816000019080519060200190610dd2929190611337565b50602082015181600101556040820151816002019080519060200190610df9929190611337565b50606082015181600301556080820151816004019080519060200190610e20929190611337565b5060a0820151816005015560c0820151816006019080519060200190610e47929190611337565b5060e0820151816007019080519060200190610e64929190611337565b506101008201518160080155610120820151816009015561014082015181600a015561016082015181600b019080519060200190610ea3929190611337565b5061018082015181600c019080519060200190610ec1929190611337565b506101a082015181600d0160006101000a81548160ff021916908315150217905550905050600160008c73ffffffffffffffffffffffffffffffffffffffff1673ffffffffffffffffffffffffffffffffffffffff1681526020019081526020016000208a908060018154018082558091505060019003906000526020600020016000909190919091509080519060200190610f5e929190611337565b50600160008d73ffffffffffffffffffffffffffffffffffffffff1673ffffffffffffffffffffffffffffffffffffffff1681526020019081526020016000208a908060018154018082558091505060019003906000526020600020016000909190919091509080519060200190610fd7929190611337565b50505050505050505050505050565b610fee6113b7565b604051806101c00160405280898152602001600281526020018881526020016003815260200160405180602001604052806000815250815260200187815260200160405180602001604052806000815250815260200186815260200185815260200184815260200160008152602001838152602001604051806020016040528060008152508152602001600015158152509050826000836040516110929190611a9b565b9081526020016040518091039020600a0154036000836040516110b59190611a9b565b9081526020016040518091039020600a0181905550600080836040516110db9190611a9b565b9081526020016040518091039020600a0154141561112d57600080836040516111049190611a9b565b9081526020016040518091039020600d0160006101000a81548160ff0219169083151502179055505b8060008960405161113e9190611a9b565b90815260200160405180910390206000820151816000019080519060200190611168929190611337565b5060208201518160010155604082015181600201908051906020019061118f929190611337565b506060820151816003015560808201518160040190805190602001906111b6929190611337565b5060a0820151816005015560c08201518160060190805190602001906111dd929190611337565b5060e08201518160070190805190602001906111fa929190611337565b506101008201518160080155610120820151816009015561014082015181600a015561016082015181600b019080519060200190611239929190611337565b5061018082015181600c019080519060200190611257929190611337565b506101a082015181600d0160006101000a81548160ff021916908315150217905550905050600160008a73ffffffffffffffffffffffffffffffffffffffff1673ffffffffffffffffffffffffffffffffffffffff168152602001908152602001600020889080600181540180825580915050600190039060005260206000200160009091909190915090805190602001906112f4929190611337565b507fb78c01f87f40cbf4eaaff0eb3eaa944b3436db13d74fd2251910fc0eff9b31df876040516113249190611aef565b60405180910390a1505050505050505050565b828054600181600116156101000203166002900490600052602060002090601f016020900481019282601f1061137857805160ff19168380011785556113a6565b828001600101855582156113a6579182015b828111156113a557825182559160200191906001019061138a565b5b5090506113b39190611428565b5090565b604051806101c00160405280606081526020016000815260200160608152602001600081526020016060815260200160008152602001606081526020016060815260200160008152602001600081526020016000815260200160608152602001606081526020016000151581525090565b5b80821115611441576000816000905550600101611429565b5090565b60008135905061145481611d6f565b92915050565b600082601f83011261146b57600080fd5b813561147e61147982611c37565b611c0a565b9150808252602083016020830185838301111561149a57600080fd5b6114a5838284611d1c565b50505092915050565b6000813590506114bd81611d86565b92915050565b6000602082840312156114d557600080fd5b60006114e384828501611445565b91505092915050565b60008060008060008060008060008060006101608c8e03121561150e57600080fd5b600061151c8e828f01611445565b9b5050602061152d8e828f01611445565b9a505060408c013567ffffffffffffffff81111561154a57600080fd5b6115568e828f0161145a565b99505060608c013567ffffffffffffffff81111561157357600080fd5b61157f8e828f0161145a565b98505060808c013567ffffffffffffffff81111561159c57600080fd5b6115a88e828f0161145a565b97505060a06115b98e828f016114ae565b96505060c08c013567ffffffffffffffff8111156115d657600080fd5b6115e28e828f0161145a565b95505060e08c013567ffffffffffffffff8111156115ff57600080fd5b61160b8e828f0161145a565b94505061010061161d8e828f016114ae565b93505061012061162f8e828f016114ae565b9250506101408c013567ffffffffffffffff81111561164d57600080fd5b6116598e828f0161145a565b9150509295989b509295989b9093969950565b60008060008060008060008060006101208a8c03121561168b57600080fd5b60006116998c828d01611445565b99505060206116aa8c828d01611445565b98505060408a013567ffffffffffffffff8111156116c757600080fd5b6116d38c828d0161145a565b97505060608a013567ffffffffffffffff8111156116f057600080fd5b6116fc8c828d0161145a565b96505060808a013567ffffffffffffffff81111561171957600080fd5b6117258c828d0161145a565b95505060a06117368c828d016114ae565b94505060c08a013567ffffffffffffffff81111561175357600080fd5b61175f8c828d0161145a565b93505060e06117708c828d016114ae565b9250506101006117828c828d016114ae565b9150509295985092959850929598565b600080600080600080600080610100898b0312156117af57600080fd5b60006117bd8b828c01611445565b985050602089013567ffffffffffffffff8111156117da57600080fd5b6117e68b828c0161145a565b975050604089013567ffffffffffffffff81111561180357600080fd5b61180f8b828c0161145a565b96505060606118208b828c016114ae565b955050608089013567ffffffffffffffff81111561183d57600080fd5b6118498b828c0161145a565b94505060a061185a8b828c016114ae565b93505060c061186b8b828c016114ae565b92505060e089013567ffffffffffffffff81111561188857600080fd5b6118948b828c0161145a565b9150509295985092959890939650565b6000602082840312156118b657600080fd5b600082013567ffffffffffffffff8111156118d057600080fd5b6118dc8482850161145a565b91505092915050565b600080604083850312156118f857600080fd5b600083013567ffffffffffffffff81111561191257600080fd5b61191e8582860161145a565b925050602083013567ffffffffffffffff81111561193b57600080fd5b6119478582860161145a565b9150509250929050565b600061195d83836119e9565b905092915050565b600061197082611c73565b61197a8185611c96565b93508360208202850161198c85611c63565b8060005b858110156119c857848403895281516119a98582611951565b94506119b483611c89565b925060208a01995050600181019050611990565b50829750879550505050505092915050565b6119e381611ce6565b82525050565b60006119f482611c7e565b6119fe8185611ca7565b9350611a0e818560208601611d2b565b611a1781611d5e565b840191505092915050565b6000611a2d82611c7e565b611a378185611cb8565b9350611a47818560208601611d2b565b611a5081611d5e565b840191505092915050565b6000611a6682611c7e565b611a708185611cc9565b9350611a80818560208601611d2b565b80840191505092915050565b611a9581611d12565b82525050565b6000611aa78284611a5b565b915081905092915050565b60006020820190508181036000830152611acc8184611965565b905092915050565b6000602082019050611ae960008301846119da565b92915050565b60006020820190508181036000830152611b098184611a22565b905092915050565b60006040820190508181036000830152611b2b8185611a22565b90508181036020830152611b3f8184611a22565b90509392505050565b600060c082019050611b5d6000830189611a8c565b8181036020830152611b6f8188611a22565b90508181036040830152611b838187611a22565b9050611b926060830186611a8c565b611b9f6080830185611a8c565b611bac60a0830184611a8c565b979650505050505050565b6000608082019050611bcc6000830187611a8c565b8181036020830152611bde8186611a22565b9050611bed6040830185611a8c565b8181036060830152611bff8184611a22565b905095945050505050565b6000604051905081810181811067ffffffffffffffff82111715611c2d57600080fd5b8060405250919050565b600067ffffffffffffffff821115611c4e57600080fd5b601f19601f8301169050602081019050919050565b6000819050602082019050919050565b600081519050919050565b600081519050919050565b6000602082019050919050565b600082825260208201905092915050565b600082825260208201905092915050565b600082825260208201905092915050565b600081905092915050565b6000611cdf82611cf2565b9050919050565b60008115159050919050565b600073ffffffffffffffffffffffffffffffffffffffff82169050919050565b6000819050919050565b82818337600083830152505050565b60005b83811015611d49578082015181840152602081019050611d2e565b83811115611d58576000848401525b50505050565b6000601f19601f8301169050919050565b611d7881611cd4565b8114611d8357600080fd5b50565b611d8f81611d12565b8114611d9a57600080fd5b5056fea2646970667358221220591da750b81cc30e202e8dcbf65eb4e0d7ad712a6c07d90c6137bc2873bea72664736f6c63430007000033",
  "immutableReferences": {},
  "source": "// SPDX-License-Identifier: MIT\npragma solidity >=0.7.0;\npragma experimental ABIEncoderV2;\n\nstruct Transaction{\n\n    string packageId;\n    uint sellerType;\n    string sellerName;\n    uint buyerType;\n    string buyerName;\n    uint cropId;\n    string cropName;\n    string grade;\n    uint price;\n    uint quantity;\n    uint remainingQuantity;\n    string prevId;\n    string nextId;\n    bool active;\n}\n\ncontract TransactionDetails{\n    event FarmerToHubTransactionAdded(string sellerName, string buyerName);\n    event HubToRetailerTransactionAdded(string sellerName, string buyerName);\n    event RetailerToCustomerTransactionAdded(string sellerName);\n\n    mapping (string => Transaction) txns;\n    mapping (address => string[]) entityTxns;\n\n    function f2hTransaction(address seller, address buyer, string memory _packageId, string memory _sellerName, string memory _buyerName, uint _cropId, string memory _cropName, uint _price, uint _quantity)\n    public {\n        Transaction memory new_txn = Transaction(_packageId, 0, _sellerName, 1, _buyerName, _cropId, \"\", _cropName ,_price, _quantity, _quantity, \"\", \"\", true);\n\n        // new_txn.packageId = _packageId;\n        // new_txn.sellerType = 0;\n        // new_txn.sellerName = _sellerName;\n        // new_txn.buyerType = 1;\n        // new_txn.buyerName = _buyerName;\n        // new_txn.crop = _crop;\n        // new_txn.price = _price;\n        // new_txn.quantity = _quantity;\n        // new_txn.prevId = \"\";\n\n        txns[_packageId] = new_txn;\n        entityTxns[seller].push(_packageId);\n        entityTxns[buyer].push(_packageId);\n\n        emit FarmerToHubTransactionAdded(_sellerName, _buyerName);\n    }\n\n    function h2rTransaction(address seller, address buyer, string memory _packageId, string memory _sellerName, string memory _buyerName, uint _cropId, string memory _cropName,string memory _grade, uint _price, uint _quantity, string memory _prevId)\n    public {\n        Transaction memory new_txn = Transaction(_packageId, 1, _sellerName, 2, _buyerName, _cropId, _cropName,_grade, _price, _quantity, _quantity, _prevId, \"\", true);\n        txns[_prevId].remainingQuantity = txns[_prevId].remainingQuantity - _quantity;\n\n        if(txns[_prevId].remainingQuantity == 0){\n            txns[_prevId].active = false;\n        }\n        \n\n        // new_txn.packageId = _packageId;\n        // new_txn.sellerType = 1;\n        // new_txn.sellerName = _sellerName;\n        // new_txn.buyerType = 2;\n        // new_txn.buyerName = _buyerName;\n        // new_txn.crop = _crop;\n        // new_txn.grade = _grade;\n        // new_txn.price = _price;\n        // new_txn.quantity = _quantity;\n        // new_txn.packageId = _packageId;\n        // new_txn.prevId = _prevId;\n\n        txns[_packageId] = new_txn;\n        entityTxns[buyer].push(_packageId);\n        entityTxns[seller].push(_packageId);\n    }\n\n    function r2cTransaction(address seller, string memory _packageId, string memory _sellerName, uint _cropId, string memory _cropName, uint _price, uint _quantity, string memory _prevId)\n    public {\n        Transaction memory new_txn = Transaction(_packageId, 2, _sellerName, 3, \"\", _cropId, \"\", _cropName , _price, _quantity, 0, _prevId, \"\", false);\n        txns[_prevId].remainingQuantity = txns[_prevId].remainingQuantity - _quantity;\n        //if all crop quantity is exhausted, make prev h2r txn inactive\n        if(txns[_prevId].remainingQuantity == 0){\n            txns[_prevId].active = false;\n        }\n\n        txns[_packageId] = new_txn;\n        entityTxns[seller].push(_packageId);\n\n        emit RetailerToCustomerTransactionAdded(_sellerName);\n    }\n    \n    function getTransactions(address _address) view public\n        returns(string[] memory){\n            return entityTxns[_address];\n        }\n\n    function getTxnCropDetails(string memory tid) view public\n    returns(uint, string memory,string memory, uint, uint, uint) {\n        return(txns[tid].cropId, txns[tid].cropName, txns[tid].grade, txns[tid].price, txns[tid].quantity, txns[tid].remainingQuantity);\n    }\n\n    function getTxnEntityDetails(string memory tid) view public\n    returns(uint, string memory, uint, string memory){\n        return(txns[tid].sellerType, txns[tid].sellerName, txns[tid].buyerType, txns[tid].buyerName);\n    }\n\n    function getPrevId(string memory tid) view public\n    returns(string memory) {\n        return(txns[tid].prevId);\n    }\n\n    function getNextId(string memory tid) view public\n    returns(string memory) {\n        return(txns[tid].nextId);\n    }\n\n    function getActiveStatus(string memory tid) view public \n    returns(bool) {\n        return(txns[tid].active);\n    }\n\n    function setNextHash(string memory tid, string memory _nextHash)\n    public {\n        txns[tid].nextId = _nextHash;\n    }\n}",
  "sourcePath": "C:/Users/vidhi/Desktop/FYP2021/Agrochain/contracts/Transaction.sol",
  "compiler": {
    "name": "solc",
    "version": "0.7.0+commit.9e61f92b.Emscripten.clang"
  },
  "schemaVersion": "3.3.3",
  "updatedAt": "2021-04-12T16:01:25.274Z",
  "networkType": "ethereum",
  "devdoc": {
    "kind": "dev",
    "methods": {},
    "version": 1
  },
  "userdoc": {
    "kind": "user",
    "methods": {},
    "version": 1
  }
}