{
  "contractName": "TransactionDetails",
  "abi": [
    {
      "anonymous": false,
      "inputs": [
        {
          "indexed": false,
          "internalType": "string",
          "name": "sellerName",
          "type": "string"
        },
        {
          "indexed": false,
          "internalType": "string",
          "name": "buyerName",
          "type": "string"
        }
      ],
      "name": "FarmerToHubTransactionAdded",
      "type": "event"
    },
    {
      "anonymous": false,
      "inputs": [
        {
          "indexed": false,
          "internalType": "string",
          "name": "sellerName",
          "type": "string"
        },
        {
          "indexed": false,
          "internalType": "string",
          "name": "buyerName",
          "type": "string"
        }
      ],
      "name": "HubToRetailerTransactionAdded",
      "type": "event"
    },
    {
      "anonymous": false,
      "inputs": [
        {
          "indexed": false,
          "internalType": "string",
          "name": "sellerName",
          "type": "string"
        }
      ],
      "name": "RetailerToCustomerTransactionAdded",
      "type": "event"
    },
    {
      "inputs": [
        {
          "internalType": "address",
          "name": "seller",
          "type": "address"
        },
        {
          "internalType": "address",
          "name": "buyer",
          "type": "address"
        },
        {
          "internalType": "string",
          "name": "_packageId",
          "type": "string"
        },
        {
          "internalType": "string",
          "name": "_sellerName",
          "type": "string"
        },
        {
          "internalType": "string",
          "name": "_buyerName",
          "type": "string"
        },
        {
          "internalType": "uint256",
          "name": "_cropId",
          "type": "uint256"
        },
        {
          "internalType": "uint256",
          "name": "_price",
          "type": "uint256"
        },
        {
          "internalType": "uint256",
          "name": "_quantity",
          "type": "uint256"
        }
      ],
      "name": "f2hTransaction",
      "outputs": [],
      "stateMutability": "nonpayable",
      "type": "function"
    },
    {
      "inputs": [
        {
          "internalType": "address",
          "name": "seller",
          "type": "address"
        },
        {
          "internalType": "address",
          "name": "buyer",
          "type": "address"
        },
        {
          "internalType": "string",
          "name": "_packageId",
          "type": "string"
        },
        {
          "internalType": "string",
          "name": "_sellerName",
          "type": "string"
        },
        {
          "internalType": "string",
          "name": "_buyerName",
          "type": "string"
        },
        {
          "internalType": "uint256",
          "name": "_cropId",
          "type": "uint256"
        },
        {
          "internalType": "string",
          "name": "_grade",
          "type": "string"
        },
        {
          "internalType": "uint256",
          "name": "_price",
          "type": "uint256"
        },
        {
          "internalType": "uint256",
          "name": "_quantity",
          "type": "uint256"
        },
        {
          "internalType": "string",
          "name": "_prevId",
          "type": "string"
        }
      ],
      "name": "h2rTransaction",
      "outputs": [],
      "stateMutability": "nonpayable",
      "type": "function"
    },
    {
      "inputs": [
        {
          "internalType": "address",
          "name": "seller",
          "type": "address"
        },
        {
          "internalType": "string",
          "name": "_packageId",
          "type": "string"
        },
        {
          "internalType": "string",
          "name": "_sellerName",
          "type": "string"
        },
        {
          "internalType": "uint256",
          "name": "_cropId",
          "type": "uint256"
        },
        {
          "internalType": "uint256",
          "name": "_price",
          "type": "uint256"
        },
        {
          "internalType": "uint256",
          "name": "_quantity",
          "type": "uint256"
        },
        {
          "internalType": "string",
          "name": "_prevId",
          "type": "string"
        }
      ],
      "name": "r2cTransaction",
      "outputs": [],
      "stateMutability": "nonpayable",
      "type": "function"
    },
    {
      "inputs": [
        {
          "internalType": "address",
          "name": "_address",
          "type": "address"
        }
      ],
      "name": "getTransactions",
      "outputs": [
        {
          "internalType": "string[]",
          "name": "",
          "type": "string[]"
        }
      ],
      "stateMutability": "view",
      "type": "function",
      "constant": true
    },
    {
      "inputs": [
        {
          "internalType": "string",
          "name": "tid",
          "type": "string"
        }
      ],
      "name": "getTxnCropDetails",
      "outputs": [
        {
          "internalType": "uint256",
          "name": "",
          "type": "uint256"
        },
        {
          "internalType": "string",
          "name": "",
          "type": "string"
        },
        {
          "internalType": "uint256",
          "name": "",
          "type": "uint256"
        },
        {
          "internalType": "uint256",
          "name": "",
          "type": "uint256"
        },
        {
          "internalType": "uint256",
          "name": "",
          "type": "uint256"
        }
      ],
      "stateMutability": "view",
      "type": "function",
      "constant": true
    },
    {
      "inputs": [
        {
          "internalType": "string",
          "name": "tid",
          "type": "string"
        }
      ],
      "name": "getTxnEntityDetails",
      "outputs": [
        {
          "internalType": "uint256",
          "name": "",
          "type": "uint256"
        },
        {
          "internalType": "string",
          "name": "",
          "type": "string"
        },
        {
          "internalType": "uint256",
          "name": "",
          "type": "uint256"
        },
        {
          "internalType": "string",
          "name": "",
          "type": "string"
        }
      ],
      "stateMutability": "view",
      "type": "function",
      "constant": true
    },
    {
      "inputs": [
        {
          "internalType": "string",
          "name": "tid",
          "type": "string"
        }
      ],
      "name": "getPrevId",
      "outputs": [
        {
          "internalType": "string",
          "name": "",
          "type": "string"
        }
      ],
      "stateMutability": "view",
      "type": "function",
      "constant": true
    },
    {
      "inputs": [
        {
          "internalType": "string",
          "name": "tid",
          "type": "string"
        }
      ],
      "name": "getNextId",
      "outputs": [
        {
          "internalType": "string",
          "name": "",
          "type": "string"
        }
      ],
      "stateMutability": "view",
      "type": "function",
      "constant": true
    },
    {
      "inputs": [
        {
          "internalType": "string",
          "name": "tid",
          "type": "string"
        }
      ],
      "name": "getActiveStatus",
      "outputs": [
        {
          "internalType": "bool",
          "name": "",
          "type": "bool"
        }
      ],
      "stateMutability": "view",
      "type": "function",
      "constant": true
    },
    {
      "inputs": [
        {
          "internalType": "string",
          "name": "tid",
          "type": "string"
        },
        {
          "internalType": "string",
          "name": "_nextHash",
          "type": "string"
        }
      ],
      "name": "setNextHash",
      "outputs": [],
      "stateMutability": "nonpayable",
      "type": "function"
    }
  ],
  "bytecode": "0x608060405234801561001057600080fd5b50611c02806100206000396000f3fe608060405234801561001057600080fd5b506004361061009e5760003560e01c8063706e462611610066578063706e4626146101825780637dda3950146101b65780638e426b0c146101e6578063afa05d9814610202578063b12ac6da1461021e5761009e565b80630f8cda20146100a357806325491f2f146100d35780632b677531146101035780633aaab8d71461011f578063513c8f641461014f575b600080fd5b6100bd60048036038101906100b8919061138c565b61023a565b6040516100ca91906118f6565b60405180910390f35b6100ed60048036038101906100e891906116e8565b610362565b6040516100fa9190611918565b60405180910390f35b61011d60048036038101906101189190611729565b610399565b005b610139600480360381019061013491906116e8565b6103d3565b6040516101469190611933565b60405180910390f35b610169600480360381019061016491906116e8565b610496565b604051610179949392919061198c565b60405180910390f35b61019c600480360381019061019791906116e8565b61066b565b6040516101ad9594939291906119df565b60405180910390f35b6101d060048036038101906101cb91906116e8565b6107cb565b6040516101dd9190611933565b60405180910390f35b61020060048036038101906101fb9190611602565b61088e565b005b61021c60048036038101906102179190611508565b610bba565b005b610238600480360381019061023391906113b5565b610eb5565b005b6060600160008373ffffffffffffffffffffffffffffffffffffffff1673ffffffffffffffffffffffffffffffffffffffff168152602001908152602001600020805480602002602001604051908101604052809291908181526020016000905b82821015610357578382906000526020600020018054600181600116156101000203166002900480601f0160208091040260200160405190810160405280929190818152602001828054600181600116156101000203166002900480156103435780601f1061031857610100808354040283529160200191610343565b820191906000526020600020905b81548152906001019060200180831161032657829003601f168201915b50505050508152602001906001019061029b565b505050509050919050565b6000808260405161037391906118df565b9081526020016040518091039020600c0160009054906101000a900460ff169050919050565b806000836040516103aa91906118df565b9081526020016040518091039020600b0190805190602001906103ce929190611207565b505050565b60606000826040516103e591906118df565b9081526020016040518091039020600a018054600181600116156101000203166002900480601f01602080910402602001604051908101604052809291908181526020018280546001816001161561010002031660029004801561048a5780601f1061045f5761010080835404028352916020019161048a565b820191906000526020600020905b81548152906001019060200180831161046d57829003601f168201915b50505050509050919050565b60006060600060606000856040516104ae91906118df565b9081526020016040518091039020600101546000866040516104d091906118df565b90815260200160405180910390206002016000876040516104f191906118df565b90815260200160405180910390206003015460008860405161051391906118df565b9081526020016040518091039020600401828054600181600116156101000203166002900480601f0160208091040260200160405190810160405280929190818152602001828054600181600116156101000203166002900480156105b95780601f1061058e576101008083540402835291602001916105b9565b820191906000526020600020905b81548152906001019060200180831161059c57829003601f168201915b50505050509250808054600181600116156101000203166002900480601f0160208091040260200160405190810160405280929190818152602001828054600181600116156101000203166002900480156106555780601f1061062a57610100808354040283529160200191610655565b820191906000526020600020905b81548152906001019060200180831161063857829003601f168201915b5050505050905093509350935093509193509193565b600060606000806000808660405161068391906118df565b9081526020016040518091039020600501546000876040516106a591906118df565b90815260200160405180910390206006016000886040516106c691906118df565b9081526020016040518091039020600701546000896040516106e891906118df565b90815260200160405180910390206008015460008a60405161070a91906118df565b908152602001604051809103902060090154838054600181600116156101000203166002900480601f0160208091040260200160405190810160405280929190818152602001828054600181600116156101000203166002900480156107b15780601f10610786576101008083540402835291602001916107b1565b820191906000526020600020905b81548152906001019060200180831161079457829003601f168201915b505050505093509450945094509450945091939590929450565b60606000826040516107dd91906118df565b9081526020016040518091039020600b018054600181600116156101000203166002900480601f0160208091040260200160405190810160405280929190818152602001828054600181600116156101000203166002900480156108825780601f1061085757610100808354040283529160200191610882565b820191906000526020600020905b81548152906001019060200180831161086557829003601f168201915b50505050509050919050565b610896611287565b604051806101a001604052808881526020016002815260200187815260200160038152602001604051806020016040528060008152508152602001868152602001604051806020016040528060008152508152602001858152602001848152602001600081526020018381526020016040518060200160405280600081525081526020016000151581525090508260008360405161093491906118df565b9081526020016040518091039020600901540360008360405161095791906118df565b9081526020016040518091039020600901819055506000808360405161097d91906118df565b90815260200160405180910390206009015414156109cf57600080836040516109a691906118df565b9081526020016040518091039020600c0160006101000a81548160ff0219169083151502179055505b806000886040516109e091906118df565b90815260200160405180910390206000820151816000019080519060200190610a0a929190611207565b50602082015181600101556040820151816002019080519060200190610a31929190611207565b50606082015181600301556080820151816004019080519060200190610a58929190611207565b5060a0820151816005015560c0820151816006019080519060200190610a7f929190611207565b5060e082015181600701556101008201518160080155610120820151816009015561014082015181600a019080519060200190610abd929190611207565b5061016082015181600b019080519060200190610adb929190611207565b5061018082015181600c0160006101000a81548160ff021916908315150217905550905050600160008973ffffffffffffffffffffffffffffffffffffffff1673ffffffffffffffffffffffffffffffffffffffff16815260200190815260200160002087908060018154018082558091505060019003906000526020600020016000909190919091509080519060200190610b78929190611207565b507fb78c01f87f40cbf4eaaff0eb3eaa944b3436db13d74fd2251910fc0eff9b31df86604051610ba89190611933565b60405180910390a15050505050505050565b610bc2611287565b604051806101a00160405280888152602001600081526020018781526020016001815260200186815260200185815260200160405180602001604052806000815250815260200184815260200183815260200183815260200160405180602001604052806000815250815260200160405180602001604052806000815250815260200160011515815250905080600088604051610c5f91906118df565b90815260200160405180910390206000820151816000019080519060200190610c89929190611207565b50602082015181600101556040820151816002019080519060200190610cb0929190611207565b50606082015181600301556080820151816004019080519060200190610cd7929190611207565b5060a0820151816005015560c0820151816006019080519060200190610cfe929190611207565b5060e082015181600701556101008201518160080155610120820151816009015561014082015181600a019080519060200190610d3c929190611207565b5061016082015181600b019080519060200190610d5a929190611207565b5061018082015181600c0160006101000a81548160ff021916908315150217905550905050600160008a73ffffffffffffffffffffffffffffffffffffffff1673ffffffffffffffffffffffffffffffffffffffff16815260200190815260200160002087908060018154018082558091505060019003906000526020600020016000909190919091509080519060200190610df7929190611207565b50600160008973ffffffffffffffffffffffffffffffffffffffff1673ffffffffffffffffffffffffffffffffffffffff16815260200190815260200160002087908060018154018082558091505060019003906000526020600020016000909190919091509080519060200190610e70929190611207565b507f44d192c32df451e64f2436c146b306c508ae85b988190afa1ff5f6c09f3096428686604051610ea2929190611955565b60405180910390a1505050505050505050565b610ebd611287565b604051806101a001604052808a8152602001600181526020018981526020016002815260200188815260200187815260200186815260200185815260200184815260200184815260200183815260200160405180602001604052806000815250815260200160011515815250905082600083604051610f3c91906118df565b90815260200160405180910390206009015403600083604051610f5f91906118df565b90815260200160405180910390206009018190555060008083604051610f8591906118df565b9081526020016040518091039020600901541415610fd75760008083604051610fae91906118df565b9081526020016040518091039020600c0160006101000a81548160ff0219169083151502179055505b8060008a604051610fe891906118df565b90815260200160405180910390206000820151816000019080519060200190611012929190611207565b50602082015181600101556040820151816002019080519060200190611039929190611207565b50606082015181600301556080820151816004019080519060200190611060929190611207565b5060a0820151816005015560c0820151816006019080519060200190611087929190611207565b5060e082015181600701556101008201518160080155610120820151816009015561014082015181600a0190805190602001906110c5929190611207565b5061016082015181600b0190805190602001906110e3929190611207565b5061018082015181600c0160006101000a81548160ff021916908315150217905550905050600160008b73ffffffffffffffffffffffffffffffffffffffff1673ffffffffffffffffffffffffffffffffffffffff16815260200190815260200160002089908060018154018082558091505060019003906000526020600020016000909190919091509080519060200190611180929190611207565b50600160008c73ffffffffffffffffffffffffffffffffffffffff1673ffffffffffffffffffffffffffffffffffffffff168152602001908152602001600020899080600181540180825580915050600190039060005260206000200160009091909190915090805190602001906111f9929190611207565b505050505050505050505050565b828054600181600116156101000203166002900490600052602060002090601f016020900481019282601f1061124857805160ff1916838001178555611276565b82800160010185558215611276579182015b8281111561127557825182559160200191906001019061125a565b5b50905061128391906112f1565b5090565b604051806101a001604052806060815260200160008152602001606081526020016000815260200160608152602001600081526020016060815260200160008152602001600081526020016000815260200160608152602001606081526020016000151581525090565b5b8082111561130a5760008160009055506001016112f2565b5090565b60008135905061131d81611b9e565b92915050565b600082601f83011261133457600080fd5b813561134761134282611a66565b611a39565b9150808252602083016020830185838301111561136357600080fd5b61136e838284611b4b565b50505092915050565b60008135905061138681611bb5565b92915050565b60006020828403121561139e57600080fd5b60006113ac8482850161130e565b91505092915050565b6000806000806000806000806000806101408b8d0312156113d557600080fd5b60006113e38d828e0161130e565b9a505060206113f48d828e0161130e565b99505060408b013567ffffffffffffffff81111561141157600080fd5b61141d8d828e01611323565b98505060608b013567ffffffffffffffff81111561143a57600080fd5b6114468d828e01611323565b97505060808b013567ffffffffffffffff81111561146357600080fd5b61146f8d828e01611323565b96505060a06114808d828e01611377565b95505060c08b013567ffffffffffffffff81111561149d57600080fd5b6114a98d828e01611323565b94505060e06114ba8d828e01611377565b9350506101006114cc8d828e01611377565b9250506101208b013567ffffffffffffffff8111156114ea57600080fd5b6114f68d828e01611323565b9150509295989b9194979a5092959850565b600080600080600080600080610100898b03121561152557600080fd5b60006115338b828c0161130e565b98505060206115448b828c0161130e565b975050604089013567ffffffffffffffff81111561156157600080fd5b61156d8b828c01611323565b965050606089013567ffffffffffffffff81111561158a57600080fd5b6115968b828c01611323565b955050608089013567ffffffffffffffff8111156115b357600080fd5b6115bf8b828c01611323565b94505060a06115d08b828c01611377565b93505060c06115e18b828c01611377565b92505060e06115f28b828c01611377565b9150509295985092959890939650565b600080600080600080600060e0888a03121561161d57600080fd5b600061162b8a828b0161130e565b975050602088013567ffffffffffffffff81111561164857600080fd5b6116548a828b01611323565b965050604088013567ffffffffffffffff81111561167157600080fd5b61167d8a828b01611323565b955050606061168e8a828b01611377565b945050608061169f8a828b01611377565b93505060a06116b08a828b01611377565b92505060c088013567ffffffffffffffff8111156116cd57600080fd5b6116d98a828b01611323565b91505092959891949750929550565b6000602082840312156116fa57600080fd5b600082013567ffffffffffffffff81111561171457600080fd5b61172084828501611323565b91505092915050565b6000806040838503121561173c57600080fd5b600083013567ffffffffffffffff81111561175657600080fd5b61176285828601611323565b925050602083013567ffffffffffffffff81111561177f57600080fd5b61178b85828601611323565b9150509250929050565b60006117a1838361182d565b905092915050565b60006117b482611aa2565b6117be8185611ac5565b9350836020820285016117d085611a92565b8060005b8581101561180c57848403895281516117ed8582611795565b94506117f883611ab8565b925060208a019950506001810190506117d4565b50829750879550505050505092915050565b61182781611b15565b82525050565b600061183882611aad565b6118428185611ad6565b9350611852818560208601611b5a565b61185b81611b8d565b840191505092915050565b600061187182611aad565b61187b8185611ae7565b935061188b818560208601611b5a565b61189481611b8d565b840191505092915050565b60006118aa82611aad565b6118b48185611af8565b93506118c4818560208601611b5a565b80840191505092915050565b6118d981611b41565b82525050565b60006118eb828461189f565b915081905092915050565b6000602082019050818103600083015261191081846117a9565b905092915050565b600060208201905061192d600083018461181e565b92915050565b6000602082019050818103600083015261194d8184611866565b905092915050565b6000604082019050818103600083015261196f8185611866565b905081810360208301526119838184611866565b90509392505050565b60006080820190506119a160008301876118d0565b81810360208301526119b38186611866565b90506119c260408301856118d0565b81810360608301526119d48184611866565b905095945050505050565b600060a0820190506119f460008301886118d0565b8181036020830152611a068187611866565b9050611a1560408301866118d0565b611a2260608301856118d0565b611a2f60808301846118d0565b9695505050505050565b6000604051905081810181811067ffffffffffffffff82111715611a5c57600080fd5b8060405250919050565b600067ffffffffffffffff821115611a7d57600080fd5b601f19601f8301169050602081019050919050565b6000819050602082019050919050565b600081519050919050565b600081519050919050565b6000602082019050919050565b600082825260208201905092915050565b600082825260208201905092915050565b600082825260208201905092915050565b600081905092915050565b6000611b0e82611b21565b9050919050565b60008115159050919050565b600073ffffffffffffffffffffffffffffffffffffffff82169050919050565b6000819050919050565b82818337600083830152505050565b60005b83811015611b78578082015181840152602081019050611b5d565b83811115611b87576000848401525b50505050565b6000601f19601f8301169050919050565b611ba781611b03565b8114611bb257600080fd5b50565b611bbe81611b41565b8114611bc957600080fd5b5056fea26469706673582212202ed099f5e1cba8e4b4669351f7c9e345664b48ed0f5a7866cd3e0af46c33256f64736f6c63430007000033",
  "immutableReferences": {},
  "source": "// SPDX-License-Identifier: MIT\r\npragma solidity >=0.7.0;\r\npragma experimental ABIEncoderV2;\r\n\r\nstruct Transaction{\r\n\r\n    string packageId;\r\n    uint sellerType;\r\n    string sellerName;\r\n    uint buyerType;\r\n    string buyerName;\r\n    uint cropId;\r\n    string grade;\r\n    uint price;\r\n    uint quantity;\r\n    uint remainingQuantity;\r\n    string prevId;\r\n    string nextId;\r\n    bool active;\r\n}\r\n\r\ncontract TransactionDetails{\r\n    event FarmerToHubTransactionAdded(string sellerName, string buyerName);\r\n    event HubToRetailerTransactionAdded(string sellerName, string buyerName);\r\n    event RetailerToCustomerTransactionAdded(string sellerName);\r\n\r\n    mapping (string => Transaction) txns;\r\n    mapping (address => string[]) entityTxns;\r\n\r\n    function f2hTransaction(address seller, address buyer, string memory _packageId, string memory _sellerName, string memory _buyerName, uint _cropId, uint _price, uint _quantity)\r\n    public {\r\n        Transaction memory new_txn = Transaction(_packageId, 0, _sellerName, 1, _buyerName, _cropId, \"\", _price, _quantity, _quantity, \"\", \"\", true);\r\n\r\n        // new_txn.packageId = _packageId;\r\n        // new_txn.sellerType = 0;\r\n        // new_txn.sellerName = _sellerName;\r\n        // new_txn.buyerType = 1;\r\n        // new_txn.buyerName = _buyerName;\r\n        // new_txn.crop = _crop;\r\n        // new_txn.price = _price;\r\n        // new_txn.quantity = _quantity;\r\n        // new_txn.prevId = \"\";\r\n\r\n        txns[_packageId] = new_txn;\r\n        entityTxns[seller].push(_packageId);\r\n        entityTxns[buyer].push(_packageId);\r\n\r\n        emit FarmerToHubTransactionAdded(_sellerName, _buyerName);\r\n    }\r\n\r\n    function h2rTransaction(address seller, address buyer, string memory _packageId, string memory _sellerName, string memory _buyerName, uint _cropId, string memory _grade, uint _price, uint _quantity, string memory _prevId)\r\n    public {\r\n        Transaction memory new_txn = Transaction(_packageId, 1, _sellerName, 2, _buyerName, _cropId, _grade, _price, _quantity, _quantity, _prevId, \"\", true);\r\n        txns[_prevId].remainingQuantity = txns[_prevId].remainingQuantity - _quantity;\r\n\r\n        if(txns[_prevId].remainingQuantity == 0){\r\n            txns[_prevId].active = false;\r\n        }\r\n        \r\n\r\n        // new_txn.packageId = _packageId;\r\n        // new_txn.sellerType = 1;\r\n        // new_txn.sellerName = _sellerName;\r\n        // new_txn.buyerType = 2;\r\n        // new_txn.buyerName = _buyerName;\r\n        // new_txn.crop = _crop;\r\n        // new_txn.grade = _grade;\r\n        // new_txn.price = _price;\r\n        // new_txn.quantity = _quantity;\r\n        // new_txn.packageId = _packageId;\r\n        // new_txn.prevId = _prevId;\r\n\r\n        txns[_packageId] = new_txn;\r\n        entityTxns[buyer].push(_packageId);\r\n        entityTxns[seller].push(_packageId);\r\n    }\r\n\r\n    function r2cTransaction(address seller, string memory _packageId, string memory _sellerName, uint _cropId, uint _price, uint _quantity, string memory _prevId)\r\n    public {\r\n        Transaction memory new_txn = Transaction(_packageId, 2, _sellerName, 3, \"\", _cropId, \"\", _price, _quantity, 0, _prevId, \"\", false);\r\n        txns[_prevId].remainingQuantity = txns[_prevId].remainingQuantity - _quantity;\r\n        //if all crop quantity is exhausted, make prev h2r txn inactive\r\n        if(txns[_prevId].remainingQuantity == 0){\r\n            txns[_prevId].active = false;\r\n        }\r\n\r\n        txns[_packageId] = new_txn;\r\n        entityTxns[seller].push(_packageId);\r\n\r\n        emit RetailerToCustomerTransactionAdded(_sellerName);\r\n    }\r\n    \r\n    function getTransactions(address _address) view public\r\n        returns(string[] memory){\r\n            return entityTxns[_address];\r\n        }\r\n\r\n    function getTxnCropDetails(string memory tid) view public\r\n    returns(uint, string memory, uint, uint, uint) {\r\n        return(txns[tid].cropId, txns[tid].grade, txns[tid].price, txns[tid].quantity, txns[tid].remainingQuantity);\r\n    }\r\n\r\n    function getTxnEntityDetails(string memory tid) view public\r\n    returns(uint, string memory, uint, string memory){\r\n        return(txns[tid].sellerType, txns[tid].sellerName, txns[tid].buyerType, txns[tid].buyerName);\r\n    }\r\n\r\n    function getPrevId(string memory tid) view public\r\n    returns(string memory) {\r\n        return(txns[tid].prevId);\r\n    }\r\n\r\n    function getNextId(string memory tid) view public\r\n    returns(string memory) {\r\n        return(txns[tid].nextId);\r\n    }\r\n\r\n    function getActiveStatus(string memory tid) view public \r\n    returns(bool) {\r\n        return(txns[tid].active);\r\n    }\r\n\r\n    function setNextHash(string memory tid, string memory _nextHash)\r\n    public {\r\n        txns[tid].nextId = _nextHash;\r\n    }\r\n}",
  "sourcePath": "C:/Users/VRUDDHI MEHTA/Desktop/VRUDDHI/Agrochain/Agrochain/contracts/Transaction.sol",
  "compiler": {
    "name": "solc",
    "version": "0.7.0+commit.9e61f92b.Emscripten.clang"
  },
  "schemaVersion": "3.3.4",
  "updatedAt": "2021-04-12T17:10:25.834Z",
  "networkType": "ethereum",
  "devdoc": {
    "kind": "dev",
    "methods": {},
    "version": 1
  },
  "userdoc": {
    "kind": "user",
    "methods": {},
    "version": 1
  }
}